:020000040800F2
:100000000028002095160008251600082B16000869
:1000100031160008371600083D16000800000000E1
:10002000000000000000000000000000431600086F
:100030004F160008000000005B1600086716000855
:10004000DD160008DD160008DD160008DD160008C4
:10005000DD160008DD160008DD160008DD160008B4
:10006000DD160008DD160008DD160008DD160008A4
:10007000DD160008DD160008DD160008DD16000894
:10008000DD160008DD160008DD160008DD16000884
:10009000DD160008DD160008DD160008DD16000874
:1000A000DD160008DD160008DD160008DD16000864
:1000B00075160008DD16000800000000DD160008B7
:1000C000DD1600080000000000000000DD1600083A
:1000D00000000000DD160008DD160008000000002A
:1000E000DD160008DD160008DD160008000000001F
:1000F0000000000000000000000000000000000000
:0C01000000000000000000005FF808F1A3
:10010C0010B5054C237833B9044B13B10448AFF345
:10011C0000800123237010BD40000020000000006F
:10012C00042D000808B5034B1BB103490348AFF37A
:10013C00008008BD0000000044000020042D0008D1
:10014C0080B500AF1E4B1B68472B20D0472B34DCEF
:10015C00452B02D0462B07D02FE0194B46221A60B4
:10016C00642001F0ADF928E0164B1B68012B21D15E
:10017C00144B00221A6000222021134801F0ABFD21
:10018C000F4B47221A60642001F09AF912E00D4BD4
:10019C001B68012B10D10B4B00221A60012220216D
:1001AC00094801F098FD064B46221A60642001F0C4
:1001BC0087F901E000BF00E000BF00BF80BD00BFB9
:1001CC00740000208C0000200008014080B400AFB7
:1001DC00034B01221A6000BFBD4680BC704700BFB4
:1001EC005C00002080B400AF034B01221A6000BFFA
:1001FC00BD4680BC704700BF6000002080B400AFDB
:10020C00034B01221A6000BFBD4680BC704700BF83
:10021C006400002080B500AF1F4B1B681F4A1360A1
:10022C001F4B1B681C4A13604FF400511D4801F012
:10023C003BFD03461A461A4B1A60174B1A68184BAB
:10024C001B689A4226D1144B1A68144B1B689A42AD
:10025C0020D1124B1A68144B1B689A420ED00F4BCC
:10026C001B68114A1360104B1B68002B12D10F4BEB
:10027C004FF496721A60FFF7A9FF0BE00B4B1B684B
:10028C00013B0A4A1360094B1B68002B02D1064B39
:10029C0001221A6000BF80BD04000020080000206D
:1002AC0000000020001001400C0000203000002055
:1002BC0080B500AF234B1B68234A1360234B1B688C
:1002CC00204A13604FF48041214801F0EDFC0346B5
:1002DC001A461E4B1A601B4B1A681C4B1B689A4221
:1002EC002DD1184B1A68184B1B689A4227D1164B04
:1002FC001A68184B1B689A420ED0134B1B68154A90
:10030C001360144B1B68002B19D1134B4FF49672CE
:10031C001A60FFF767FF12E00F4B1B68013B0E4A98
:10032C0013600D4B1B68002B09D10A4B1B68002B6B
:10033C0005D10A4B01221A60074B64221A6000BFD8
:10034C0080BD00BF14000020180000201000002009
:10035C00001001401C00002030000020680000202C
:10036C0080B500AF234B1B68234A1360234B1B68DB
:10037C00204A13604FF40041214801F095FC0346DC
:10038C001A461E4B1A601B4B1A681C4B1B689A4270
:10039C002DD1184B1A68184B1B689A4227D1164B53
:1003AC001A68184B1B689A420ED0134B1B68154ADF
:1003BC001360144B1B68002B19D1134B4FF496721E
:1003CC001A60FFF71BFF12E00F4B1B68013B0E4A34
:1003DC0013600D4B1B68002B09D10A4B1B68002BBB
:1003EC0005D10A4B01221A60074B64221A6000BF28
:1003FC0080BD00BF24000020280000202000002029
:10040C00001001402C000020300000206C00002067
:10041C0080B582B000AF78607B68092B00F28081D8
:10042C0001A252F823F000BF5D040008A5040008E7
:10043C00ED040008350500087D050008C505000819
:10044C000D060008550600089D060008E506000884
:10045C0000220221B54801F03EFC00220421B348E1
:10046C0001F039FC00220821B04801F034FC0022D4
:10047C001021AE4801F02FFC00222021AB4801F0E6
:10048C002AFC00224021A94801F025FC01228021F0
:10049C00A64801F020FC44E101220221A34801F00E
:1004AC001AFC00220421A14801F015FC00220821AD
:1004BC009E4801F010FC012210219C4801F00BFC1D
:1004CC0001222021994801F006FC01224021974885
:1004DC0001F001FC01228021944801F0FCFB20E199
:1004EC0000220221914801F0F6FB002204218F48E2
:1004FC0001F0F1FB012208218C4801F0ECFB0022F9
:10050C0010218A4801F0E7FB00222021874801F0E6
:10051C00E2FB01224021854801F0DDFB0022802115
:10052C00824801F0D8FBFCE0002202217F4801F058
:10053C00D2FB002204217D4801F0CDFB00220821D2
:10054C007A4801F0C8FB00221021784801F0C3FB67
:10055C0001222021754801F0BEFB01224021734885
:10056C0001F0B9FB00228021704801F0B4FBD8E007
:10057C00012202216D4801F0AEFB002204216B48E0
:10058C0001F0A9FB00220821684801F0A4FB01221C
:10059C001021664801F09FFB01222021634801F0E5
:1005AC009AFB00224021614801F095FB002280213A
:1005BC005E4801F090FBB4E0002202215B4801F0A0
:1005CC008AFB01220421594801F085FB00220821F5
:1005DC00564801F080FB00221021544801F07BFBAF
:1005EC0001222021514801F076FB002240214F4886
:1005FC0001F071FB002280214C4801F06CFB90E073
:10060C0000220221494801F066FB012204214748DF
:10061C0001F061FB00220821444801F05CFB002240
:10062C001021424801F057FB002220213F4801F0E5
:10063C0052FB002240213D4801F04DFB002280215D
:10064C003A4801F048FB6CE000220221374801F0E7
:10065C0042FB00220421354801F03DFB0022082119
:10066C00324801F038FB01221021304801F033FBF5
:10067C00012220212D4801F02EFB012240212B4884
:10068C0001F029FB01228021284801F024FB48E0DD
:10069C0000220221254801F01EFB002204212348E0
:1006AC0001F019FB00220821204801F014FB002264
:1006BC0010211E4801F00FFB002220211B4801F0E5
:1006CC000AFB00224021194801F005FB0022802181
:1006DC00164801F000FB24E000220221134801F02F
:1006EC00FAFA00220421114801F0F5FA002208213F
:1006FC000E4801F0F0FA012210210C4801F0EBFA3F
:10070C0001222021094801F0E6FA00224021074885
:10071C0001F0E1FA00228021044801F0DCFA00E04B
:10072C0000BF00BF0837BD4680BD00BF000C0140B4
:10073C0080B500AFB14B1B68013B3A2B00F29C819A
:10074C0001A252F823F000BF41080008850A0008F6
:10075C00850A0008850A0008850A0008850A000831
:10076C00850A0008850A0008850A0008850A000821
:10077C00850A0008850A0008850A0008850A000811
:10078C00850A0008850A0008850A0008850A000801
:10079C00850A0008850A0008850A0008850A0008F1
:1007AC00850A0008850A0008850A0008850A0008E1
:1007BC00850A0008850A0008850A0008850A0008D1
:1007CC00850A0008850A0008850A0008850A0008C1
:1007DC00850A0008850A0008850A0008850A0008B1
:1007EC00850A0008850A0008850A0008850A0008A1
:1007FC00850A0008850A0008850A0008850A000891
:10080C00850A0008850A0008850A00085D080008AA
:10081C0089080008C1080008F50800082D0900081F
:10082C00650900089D090008D3090008190A000889
:10083C004F0A00080020FFF7EBFD704B0C221A60EA
:10084C006F4B46221A604FF47A7000F025FE26E1B9
:10085C006C4B1B68012B05D16A4B00221A60674B4D
:10086C000C221A60684B1B68012B40F00781664B09
:10087C0000221A600020FFF7CBFDFFE0614B1B68E4
:10088C00012B05D15F4B00221A605C4B0D221A60C4
:10089C005D4B1B68012B40F0F3805B4B00221A6010
:1008AC000120FFF7B5FD554B32221A60642000F091
:1008BC00F3FDE5E0534B1B68012B05D1514B002296
:1008CC001A604E4B0E221A604F4B1B68012B0BD13A
:1008DC004D4B00221A600220FFF79AFD474B332242
:1008EC001A60642000F0D8FD464B1B68012B05D123
:1008FC00444B00221A60414B0F221A60424B1B687A
:10090C00012B40F0BF80404B00221A600320FFF700
:10091C007FFD3A4B34221A60642000F0BDFDB1E03B
:10092C00384B1B68012B05D1364B00221A60334B18
:10093C0010221A60344B1B68012B40F0A580324BFF
:10094C0000221A600420FFF763FD2C4B35221A603D
:10095C00642000F0A1FD97E02A4B1B68012B05D108
:10096C00284B00221A60254B11221A60264B1B685B
:10097C00012B40F08B80244B00221A600520FFF7DE
:10098C0047FD1E4B36221A60642000F085FD7DE089
:10099C001C4B1B68012B05D11A4B00221A60174BFC
:1009AC0012221A60184B1B68012B71D1164B0022B6
:1009BC001A600620FFF72CFD104B37221A606420BA
:1009CC0000F06AFD64E0104B1B68012B0BD10E4B41
:1009DC0000221A600720FFF71BFD084B38221A6013
:1009EC00642000F059FD074B1B68012B52D1054BBD
:1009FC0000221A60014B13221A604BE07000002099
:100A0C00740000206000002088000020254B1B682B
:100A1C00012B05D1234B00221A60234B14221A60A0
:100A2C00224B1B68012B37D1204B00221A60082067
:100A3C00FFF7EEFC1C4B39221A60642000F02CFDF1
:100A4C002AE0184B1B68012B05D1164B00221A60AB
:100A5C00154B15221A60154B1B68012B1ED1134B1D
:100A6C0000221A600920FFF7D3FC0F4B3A221A60C0
:100A7C00642000F011FD11E000BF10E000BF0EE09B
:100A8C0000BF0CE000BF0AE000BF08E000BF06E0BA
:100A9C0000BF04E000BF02E000BF00E000BF00BFE9
:100AAC0080BD00BF60000020700000208800002086
:100ABC0080B500AF974B1B681E3B092B00F21281CF
:100ACC0001A252F823F000BFFD0A0008310B000808
:100ADC00650B0008990B0008CD0B0008010C0008F1
:100AEC00310C0008610C0008910C0008C10C0008C6
:100AFC00894B1B68012B40F0F780874B00221A6052
:100B0C00864B1B68012B40F0EF800020FFF780FC28
:100B1C00824B00221A607F4B1F221A60642000F067
:100B2C00A7FCE1E07C4B1B68012B40F0DF807A4B8B
:100B3C0000221A60794B1B68012B40F0D7800120F2
:100B4C00FFF766FC754B00221A60724B20221A606C
:100B5C00642000F08DFCC9E06F4B1B68012B40F04A
:100B6C00C7806D4B00221A606C4B1B68012B40F048
:100B7C00BF800220FFF74CFC684B00221A60654BCB
:100B8C0021221A60642000F073FCB1E0624B1B68F8
:100B9C00012B40F0AF80604B00221A605F4B1B684A
:100BAC00012B40F0A7800320FFF732FC5B4B0022A7
:100BBC001A60584B22221A60642000F059FC99E00C
:100BCC00554B1B68012B40F09780534B00221A6049
:100BDC00524B1B68012B40F08F800420FFF718FC50
:100BEC004E4B00221A604B4B23221A60642000F0FB
:100BFC003FFC81E0484B1B68012B7FD1464B002208
:100C0C001A60464B1B68012B78D10520FFF700FCBE
:100C1C00424B00221A603F4B24221A60642000F0E1
:100C2C0027FC6BE03C4B1B68012B69D13A4B002233
:100C3C001A603A4B1B68012B62D10620FFF7E8FBC8
:100C4C00364B00221A60334B25221A60642000F0C8
:100C5C000FFC55E0304B1B68012B53D12E4B00225F
:100C6C001A602E4B1B68012B4CD10720FFF7D0FBD1
:100C7C002A4B00221A60274B26221A60642000F0AF
:100C8C00F7FB3FE0244B1B68012B3DD1224B00228C
:100C9C001A60224B1B68012B36D10820FFF7B8FBDA
:100CAC001E4B00221A601B4B27221A60642000F096
:100CBC00DFFB29E0184B1B68012B27D1164B0022B8
:100CCC001A60164B1B68012B20D10920FFF7A0FBE3
:100CDC00124B00221A600F4B1E221A60642000F087
:100CEC00C7FB13E000BF12E000BF10E000BF0EE036
:100CFC0000BF0CE000BF0AE000BF08E000BF06E048
:100D0C0000BF04E000BF02E000BF00E000BF00BF76
:100D1C0080BD00BF7000002084000020680000200F
:100D2C0080B500AF944B1B680C3B092B00F24E8234
:100D3C0001A252F823F000BF6D0D0008CD0D000884
:100D4C003B0E0008A90E0008170F00089D0F0008A5
:100D5C000B10000879100008E71000085311000868
:100D6C000020FFF755FB854B1B68012B05D1834BEE
:100D7C0000221A60804B0D221A60814B1B68012BDC
:100D8C0008D17F4B00221A607B4B1F221A60642013
:100D9C0000F06EFB7B4B1B68012B05D1794B0022BD
:100DAC001A60754B15221A60774B1B68012B40F0AB
:100DBC000F82754B00221A606F4B32221A6007E2C9
:100DCC000120FFF725FB714B1B68012B05D16F4BE5
:100DDC0000221A60684B01221A60684B1B68012BB9
:100DEC0005D1664B00221A60634B0E221A60644BCD
:100DFC001B68012B05D1624B00221A605E4B20222E
:100E0C001A60604B1B68012B05D15E4B00221A60E7
:100E1C00594B01221A605C4B1B68012B40F0DA81A4
:100E2C00594B00221A60544B33221A60D2E1022033
:100E3C00FFF7EEFA554B1B68012B05D1534B0022E3
:100E4C001A604D4B01221A604C4B1B68012B05D1CB
:100E5C004A4B00221A60484B0F221A60484B1B6801
:100E6C00012B05D1464B00221A60434B21221A60FC
:100E7C00444B1B68012B05D1424B00221A603E4BA0
:100E8C000D221A60404B1B68012B40F0A5813E4B94
:100E9C0000221A60384B34221A609DE10320FFF7C0
:100EAC00B7FA3A4B1B68012B05D1384B00221A605C
:100EBC00314B01221A60314B1B68012B05D12F4B92
:100ECC0000221A602C4B10221A602D4B1B68012B30
:100EDC0005D12B4B00221A60274B21221A60294B7B
:100EEC001B68012B05D1274B00221A60224B0E22C6
:100EFC001A60254B1B68012B40F07081224B00229D
:100F0C001A601D4B35221A6068E10420FFF780FA45
:100F1C001E4B1B68012B05D11C4B00221A60164B73
:100F2C0001221A60154B1B68012B05D1134B0022B3
:100F3C001A60114B11221A60114B1B68012B05D141
:100F4C000F4B00221A600C4B22221A600D4B1B68AF
:100F5C00012B05D10B4B00221A60074B0F221A6094
:100F6C00094B1B68012B40F03B81074B00221A6098
:100F7C00014B36221A6033E1700000206000002023
:100F8C006800002064000020880000205C00002025
:100F9C009A4B1B68012B05D1984B00221A60984B79
:100FAC0001221A600520FFF733FA964B1B68012BC0
:100FBC0005D1944B00221A60914B12221A60924B6D
:100FCC001B68012B05D1904B00221A608C4B2322FD
:100FDC001A608E4B1B68012B05D18C4B00221A60BA
:100FEC00874B10221A608A4B1B68012B40F0FA8049
:100FFC00874B00221A60824B37221A60F2E07F4B3B
:10100C001B68012B05D17D4B00221A607C4B012201
:10101C001A600620FFF7FCF97A4B1B68012B05D1EF
:10102C00784B00221A60764B13221A60764B1B68A1
:10103C00012B05D1744B00221A60714B24221A60CB
:10104C00724B1B68012B05D1704B00221A606C4B44
:10105C0011221A606E4B1B68012B40F0C5806C4B43
:10106C0000221A60664B38221A60BDE00720FFF799
:10107C00CFF9624B1B68012B05D1604B00221A6023
:10108C005F4B01221A605F4B1B68012B05D15D4B36
:10109C0000221A605A4B14221A605B4B1B68012BFE
:1010AC0005D1594B00221A60554B25221A60574B1B
:1010BC001B68012B05D1554B00221A60504B122294
:1010CC001A60534B1B68012B40F09080504B002250
:1010DC001A604B4B39221A6088E0484B1B68012B75
:1010EC0005D1464B00221A60454B01221A6008209C
:1010FC00FFF78EF9434B1B68012B05D1414B0022A6
:10110C001A603F4B15221A603F4B1B68012B05D10F
:10111C003D4B00221A603A4B26221A603B4B1B684F
:10112C00012B05D1394B00221A60354B13221A6062
:10113C00374B1B68012B5BD1354B00221A60304BAF
:10114C003A221A6054E00920FFF762F92B4B1B6816
:10115C00012B05D1294B00221A60294B01221A6060
:10116C00284B1B68012B05D1264B00221A60244BFF
:10117C0001221A60244B1B68012B05D1224B002243
:10118C001A601F4B27221A60214B1B68012B08D1B8
:10119C001F4B00221A601A4B3B221A60642000F08D
:1011AC007BF91A4B1B68012B05D1184B00221A60D6
:1011BC00134B14221A60164B1B68012B1AD1144BBB
:1011CC0000221A600E4B3B221A6013E000BF12E0A3
:1011DC0000BF10E000BF0EE000BF0CE000BF0AE053
:1011EC0000BF08E000BF06E000BF04E000BF02E063
:1011FC0000BF00E000BF00BF80BD00BF5C0000204E
:10120C0070000020600000206800002064000020B6
:10121C008800002080B500AF00F05CFA00F01CF8EC
:10122C0000F0A2F800F054F8084801F0A5F9084BBA
:10123C0001221A60074B45221A60FFF779FAFFF773
:10124C006FFDFFF735FCFEF77BFFF6E79000002003
:10125C00700000207400002080B590B000AF07F142
:10126C00180328220021184601F03EFD3B1D0022E8
:10127C001A605A609A60DA601A610223BB6101231A
:10128C00BB621023FB6200237B6307F11803184633
:10129C0000F03AFD0346002B01D000F0E3F80F23D9
:1012AC007B600023BB600023FB6000233B610023B9
:1012BC007B613B1D0021184600F0A6FF0346002B66
:1012CC0001D000F0CFF800BF4037BD4680BD000014
:1012DC0080B586B000AF07F1080300221A605A608F
:1012EC009A60DA603B4600221A605A601D4B4FF040
:1012FC0080421A601B4B41F63F725A60194B002218
:10130C009A60184B0922DA60164B00221A61154BB1
:10131C0000229A61134801F0DFF80346002B01D03C
:10132C0000F0A0F84FF48053BB6007F10803194696
:10133C000C4801F075FA0346002B01D000F092F82E
:10134C0000233B6000237B603B461946054801F0B7
:10135C003DFC0346002B01D000F084F800BF183789
:10136C00BD4680BD9000002080B588B000AF07F16D
:10137C00100300221A605A609A60DA602D4B9B6948
:10138C002C4A43F0100393612A4B9B6903F0100322
:10139C00FB60FB68274B9B69264A43F0040393616F
:1013AC00244B9B6903F00403BB60BB68214B9B6916
:1013BC00204A43F0080393611E4B9B6903F008031A
:1013CC007B607B68002270211B4800F084FC0022AB
:1013DC00FE211A4800F07FFC4FF460433B61002370
:1013EC007B610123BB6107F110031946144800F01F
:1013FC00E1FA70233B6101237B610023BB61022373
:10140C00FB6107F1100319460B4800F0D3FAFE23D9
:10141C003B6101237B610023BB610223FB6107F16C
:10142C0010031946054800F0C5FA00BF2037BD4629
:10143C0080BD00BF0010024000080140000C0140BC
:10144C000010014080B582B000AF786000F04CF81D
:10145C00FEF7E0FEFEF72CFFFEF782FF00BF083719
:10146C00BD4680BD80B400AF72B600BFFEE7000081
:10147C0080B483B000AF7860054A7B681360054B7D
:10148C0000221A6000BF0C37BD4680BC704700BFFD
:10149C00780000208400002080B483B000AF786016
:1014AC00054A7B681360054B00221A6000BF0C379D
:1014BC00BD4680BC704700BF7C0000208800002027
:1014CC0080B483B000AF7860054A7B681360054B2D
:1014DC0000221A6000BF0C37BD4680BC704700BFAD
:1014EC00800000208C00002080B400AF194B1B68DA
:1014FC00002B04D0174B1B68013B164A1360154B8D
:10150C001B68002B02DC144B01221A60134B1B6866
:10151C00002B04D0114B1B68013B104A13600F4B7E
:10152C001B68002B02DC0E4B01221A600D4B1B6852
:10153C00002B04D00B4B1B68013B0A4A1360094B70
:10154C001B68002B02DC084B01221A6000BFBD4651
:10155C0080BC704778000020840000207C000020B4
:10156C0088000020800000208C00002080B485B012
:10157C0000AF154B9B69144A43F001039361124B66
:10158C009B6903F00103BB60BB680F4BDB690E4A20
:10159C0043F08053D3610C4BDB6903F080537B60C9
:1015AC007B680A4B5B68FB60FB6823F0E063FB60C5
:1015BC00FB6843F08063FB60044AFB68536000BF28
:1015CC001437BD4680BC704700100240000001403B
:1015DC0080B584B000AF78607B681B68B3F1804F36
:1015EC0013D10C4BDB690B4A43F00103D361094B5C
:1015FC00DB6903F00103FB60FB68002200211C2067
:10160C0000F0A1F91C2000F0BAF900BF1037BD465C
:10161C0080BD00BF0010024080B400AFFEE780B474
:10162C0000AFFEE780B400AFFEE780B400AFFEE78A
:10163C0080B400AFFEE780B400AF00BFBD4680BCF5
:10164C00704780B400AF00BFBD4680BC704780B40B
:10165C0000AF00BFBD4680BC704780B500AF00F046
:10166C007FF800BF80BD000080B500AF024800F0DD
:10167C00CFFF00BF80BD00BF9000002080B400AF42
:10168C0000BFBD4680BC70470C480D490D4A002375
:10169C0002E0D458C4500433C4188C42F9D30A4A1B
:1016AC000A4C002301E013600432A242FBD3FFF783
:1016BC00E5FF01F0F5FAFFF7ADFD704700000020E3
:1016CC0040000020442D000840000020DC000020D9
:1016DC00FEE7000080B500AF084B1B68074A43F0DB
:1016EC0010031360032000F023F90F2000F008F81A
:1016FC00FFF73CFF0023184680BD00BF00200240CE
:10170C0080B582B000AF7860124B1A68124B1B7810
:10171C0019464FF47A73B3FBF1F3B2FBF3F31846AB
:10172C0000F03BF90346002B01D001230EE07B684F
:10173C000F2B0AD8002279684FF0FF3000F003F924
:10174C00064A7B681360002300E001231846083723
:10175C00BD4680BD340000203C0000203800002035
:10176C0080B400AF054B1B781A46054B1B6813441D
:10177C00034A136000BFBD4680BC70473C0000208C
:10178C00D800002080B400AF024B1B681846BD4641
:10179C0080BC7047D800002080B485B000AF786062
:1017AC007B6803F00703FB600C4BDB68BB60BA681B
:1017BC004FF6FF031340BB60FB681A02BB68134370
:1017CC0043F0BF6343F40033BB60044ABB68D3608F
:1017DC0000BF1437BD4680BC704700BF00ED00E071
:1017EC0080B400AF044BDB681B0A03F007031846F8
:1017FC00BD4680BC704700BF00ED00E080B483B0F4
:10180C0000AF0346FB7197F90730002B0BDBFB791C
:10181C0003F01F02064997F907305B09012000FA13
:10182C0002F241F8232000BF0C37BD4680BC704744
:10183C0000E100E080B483B000AF03463960FB7177
:10184C0097F90730002B0ADB3B68DAB20C4997F9A1
:10185C0007301201D2B20B4483F800230AE03B6834
:10186C00DAB20849FB7903F00F03043B1201D2B240
:10187C000B441A7600BF0C37BD4680BC704700BFC6
:10188C0000E100E000ED00E080B489B000AFF8604A
:10189C00B9607A60FB6803F00703FB61FB69C3F175
:1018AC000703042B28BF0423BB61FB690433062BFD
:1018BC0002D9FB69033B00E000237B614FF0FF3250
:1018CC00BB6902FA03F3DA43BB681A407B699A409E
:1018DC004FF0FF317B6901FA03F3D9437B680B406E
:1018EC00134318462437BD4680BC704780B582B080
:1018FC0000AF78607B68013BB3F1807F01D301239B
:10190C000FE00A4A7B68013B53600F214FF0FF3018
:10191C00FFF790FF054B00229A60044B07221A60D8
:10192C00002318460837BD4680BD00BF10E000E01C
:10193C0080B582B000AF78607868FFF72DFF00BFEC
:10194C000837BD4680BD80B586B000AF0346B96090
:10195C007A60FB7300237B61FFF742FF78617A6842
:10196C00B9687869FFF790FF024697F90F30114676
:10197C001846FFF75FFF00BF1837BD4680BD80B526
:10198C0082B000AF0346FB7197F907301846FFF79A
:10199C0035FF00BF0837BD4680BD80B582B000AFB3
:1019AC0078607868FFF7A2FF034618460837BD46F3
:1019BC0080BD000080B48BB000AF7860396000232C
:1019CC007B6200233B6248E101227B6A02FA03F34B
:1019DC00FB613B681B68FA691340BB61BA69FB6920
:1019EC009A4240F037813B685B68A34A93425ED0D1
:1019FC00A14A934275D8A14A934258D09F4A934228
:101A0C006FD89F4A934252D09D4A934269D89D4ABF
:101A1C0093424CD09B4A934263D89B4A934246D004
:101A2C00994A93425DD8122B2AD8122B59D801A26D
:101A3C0052F823F0BB1A0008951A0008A71A0008E0
:101A4C00E91A0008EF1A0008EF1A0008EF1A00084C
:101A5C00EF1A0008EF1A0008EF1A0008EF1A000836
:101A6C00EF1A0008EF1A0008EF1A0008EF1A000826
:101A7C00EF1A0008EF1A00089D1A0008B11A0008A6
:101A8C00824A934213D02CE03B68DB683B6229E02E
:101A9C003B68DB6804333B6224E03B68DB6808335B
:101AAC003B621FE03B68DB680C333B621AE03B682F
:101ABC009B68002B02D104233B6213E03B689B68BC
:101ACC00012B05D108233B627B68FA691A6109E096
:101ADC0008233B627B68FA695A6103E000233B628E
:101AEC0000E000BFBB69FF2B01D87B6801E07B687D
:101AFC0004337B61BB69FF2B02D87B6A9B0002E03D
:101B0C007B6A083B9B003B617B691A680F213B6930
:101B1C0001FA03F3DB431A40396A3B6901FA03F318
:101B2C001A437B691A603B685B6803F08053002B97
:101B3C0000F09080564B9B69554A43F0010393612A
:101B4C00534B9B6903F00103BB60BB68514A7B6A32
:101B5C009B08023352F82330FB607B6A03F00303CB
:101B6C009B000F2202FA03F3DB43FA681340FB607D
:101B7C007B68494A93420DD07B68484A934207D010
:101B8C007B68474A934201D1022304E0032302E01D
:101B9C00012300E000237A6A02F0030292009340D2
:101BAC00FA681343FB603B497B6A9B080233FA6873
:101BBC0041F823203B685B6803F48033002B06D08C
:101BCC00384B1A683749BB6913430B6006E0354B39
:101BDC001A68BB69DB43334913400B603B685B6895
:101BEC0003F40033002B06D02E4B5A682D49BB69E9
:101BFC0013434B6006E02B4B5A68BB69DB43294906
:101C0C0013404B603B685B6803F48013002B06D0D9
:101C1C00244B9A682349BB6913438B6006E0214B24
:101C2C009A68BB69DB431F4913408B603B685B6858
:101C3C0003F40013002B06D01A4BDA681949BB6960
:101C4C001343CB6006E0174BDA68BB69DB431549DD
:101C5C001340CB607B6A01337B623B681A687B6AFA
:101C6C0022FA03F3002B7FF4AFAE00BF00BF2C377A
:101C7C00BD4680BC704700BF000032100000311020
:101C8C0000002210000021100000121000001110A2
:101C9C00001002400000014000080140000C01400F
:101CAC00001001400004014080B485B000AF7860A2
:101CBC000B467B807B689A687B881340002B02D094
:101CCC000123FB7301E00023FB73FB7B18461437E5
:101CDC00BD4680BC704780B483B000AF78600B46C3
:101CEC007B8013467B707B78002B03D07A887B68D3
:101CFC001A6103E07B881A047B681A6100BF0C37F9
:101D0C00BD4680BC7047000080B586B000AF7860DF
:101D1C007B68002B01D101236CE27B681B6803F00C
:101D2C000103002B00F08780924B5B6803F00C03DF
:101D3C00042B0CD08F4B5B6803F00C03082B12D1D7
:101D4C008C4B5B6803F48033B3F5803F0BD1894B2C
:101D5C001B6803F40033002B6CD07B685B68002B92
:101D6C0068D1012346E27B685B68B3F5803F06D1FE
:101D7C00804B1B687F4A43F4803313602EE07B68F2
:101D8C005B68002B0CD17B4B1B687A4A23F48033A5
:101D9C001360784B1B68774A23F4802313601DE093
:101DAC007B685B68B3F5A02F0CD1724B1B68714A32
:101DBC0043F4802313606F4B1B686E4A43F48033EB
:101DCC0013600BE06B4B1B686A4A23F4803313607F
:101DDC00684B1B68674A23F4802313607B685B683D
:101DEC00002B13D0FFF7CEFC386108E0FFF7CAFCDC
:101DFC0002463B69D31A642B01D90323FAE15D4BEC
:101E0C001B6803F40033002BF0D014E0FFF7BAFC8E
:101E1C00386108E0FFF7B6FC02463B69D31A642B25
:101E2C0001D90323E6E1534B1B6803F40033002B69
:101E3C00F0D100E000BF7B681B6803F00203002BAD
:101E4C0063D04C4B5B6803F00C03002B0BD0494B5D
:101E5C005B6803F00C03082B1CD1464B5B6803F446
:101E6C008033002B16D1434B1B6803F00203002B6D
:101E7C0005D07B681B69012B01D00123BAE13D4BD6
:101E8C001B6823F0F8027B685B69DB00394913435C
:101E9C000B603AE07B681B69002B20D0364B01228B
:101EAC001A60FFF76FFC386108E0FFF76BFC024625
:101EBC003B69D31A022B01D903239BE12D4B1B68E1
:101ECC0003F00203002BF0D02A4B1B6823F0F8021E
:101EDC007B685B69DB00274913430B6015E0264BDD
:101EEC0000221A60FFF74EFC386108E0FFF74AFC4D
:101EFC0002463B69D31A022B01D903237AE11D4B0D
:101F0C001B6803F00203002BF0D17B681B6803F005
:101F1C000803002B3AD07B689B69002B19D0174B18
:101F2C0001221A60FFF72EFC386108E0FFF72AFC4B
:101F3C0002463B69D31A022B01D903235AE10D4BFC
:101F4C005B6A03F00203002BF0D0012000F0A6FA2C
:101F5C001CE00A4B00221A60FFF714FC38610FE0FA
:101F6C00FFF710FC02463B69D31A022B08D9032356
:101F7C0040E100BF00100240000042428004424297
:101F8C009E4B5B6A03F00203002BE9D17B681B6854
:101F9C0003F00403002B00F0A6800023FB75974B85
:101FAC00DB6903F08053002B0DD1944BDB69934A12
:101FBC0043F08053D361914BDB6903F08053BB60DA
:101FCC00BB680123FB758E4B1B6803F48073002BDD
:101FDC0018D18B4B1B688A4A43F480731360FFF74C
:101FEC00D1FB386108E0FFF7CDFB02463B69D31A01
:101FFC00642B01D90323FDE0814B1B6803F4807330
:10200C00002BF0D07B68DB68012B06D17B4B1B6A65
:10201C007A4A43F0010313622DE07B68DB68002BE6
:10202C000CD1764B1B6A754A23F001031362734B78
:10203C001B6A724A23F0040313621CE07B68DB68A2
:10204C00052B0CD16D4B1B6A6C4A43F004031362D5
:10205C006A4B1B6A694A43F0010313620BE0674B3E
:10206C001B6A664A23F001031362644B1B6A634AC2
:10207C0023F0040313627B68DB68002B15D0FFF799
:10208C0081FB38610AE0FFF77DFB02463B69D31AFE
:10209C0041F28832934201D90323ABE0574B1B6AC0
:1020AC0003F00203002BEED014E0FFF76BFB38615A
:1020BC000AE0FFF767FB02463B69D31A41F288320C
:1020CC00934201D9032395E04C4B1B6A03F00203A6
:1020DC00002BEED1FB7D012B05D1484BDB69474A28
:1020EC0023F08053D3617B68DB69002B00F0818087
:1020FC00424B5B6803F00C03082B61D07B68DB69F7
:10210C00022B46D13F4B00221A60FFF73BFB386194
:10211C0008E0FFF737FB02463B69D31A022B01D9C3
:10212C00032367E0354B1B6803F00073002BF0D1E1
:10213C007B681B6AB3F5803F08D1304B5B6823F496
:10214C0000327B689B682D4913434B602B4B5B68BB
:10215C0023F474127B68196A7B685B6A0B4327490A
:10216C0013434B60274B01221A60FFF70BFB3861BE
:10217C0008E0FFF707FB02463B69D31A022B01D993
:10218C00032337E01D4B1B6803F00073002BF0D0CA
:10219C002FE01C4B00221A60FFF7F4FA386108E0BC
:1021AC00FFF7F0FA02463B69D31A022B01D903233D
:1021BC0020E0124B1B6803F00073002BF0D118E0E9
:1021CC007B68DB69012B01D1012313E00B4B5B68AE
:1021DC00FB60FB6803F480327B681B6A9A4206D171
:1021EC00FB6803F470127B685B6A9A4201D001238E
:1021FC0000E0002318461837BD4680BD0010024091
:10220C00007000406000424280B584B000AF78603E
:10221C0039607B68002B01D10123D0E06A4B1B682D
:10222C0003F007033A689A4210D9674B1B6823F0F6
:10223C00070265493B6813430B60634B1B6803F053
:10224C0007033A689A4201D00123B8E07B681B6807
:10225C0003F00203002B20D07B681B6803F00403FF
:10226C00002B05D0594B5B68584A43F4E06353602C
:10227C007B681B6803F00803002B05D0534B5B688D
:10228C00524A43F460535360504B5B6823F0F002A6
:10229C007B689B684D4913434B607B681B6803F05C
:1022AC000103002B40D07B685B68012B07D1474BA7
:1022BC001B6803F40033002B15D101237FE07B68EE
:1022CC005B68022B07D1414B1B6803F00073002B9A
:1022DC0009D1012373E03D4B1B6803F00203002B73
:1022EC0001D101236BE0394B5B6823F003027B685F
:1022FC005B68364913434B60FFF744FAF8600AE019
:10230C00FFF740FA0246FB68D31A41F28832934237
:10231C0001D9032353E02D4B5B6803F00C027B685F
:10232C005B689B009A42EBD1274B1B6803F00703B9
:10233C003A689A4210D2244B1B6823F007022249B8
:10234C003B6813430B60204B1B6803F007033A6890
:10235C009A4201D0012332E07B681B6803F004032E
:10236C00002B08D0194B5B6823F4E0627B68DB68B8
:10237C00164913434B607B681B6803F00803002B62
:10238C0009D0124B5B6823F460527B681B69DB003D
:10239C000E4913434B6000F021F802460B4B5B686F
:1023AC001B0903F00F030A49CB5C22FA03F3094A19
:1023BC001360094B1B681846FFF7A2F90023184657
:1023CC001037BD4680BD00BF002002400010024007
:1023DC002C2D0008340000203800002090B48AB066
:1023EC0000AF2A4B3C1D0FCB84E80F0040F20123B9
:1023FC003B800023FB610023BB6100237B62002335
:10240C007B6100233B62224B5B68FB61FB6903F041
:10241C000C03042B02D0082B03D02DE01D4B3B6288
:10242C002DE0FB699B0C03F00F0307F1280213440A
:10243C0013F8243C7B61FB6903F48033002B13D02D
:10244C00134B5B685B0C03F0010307F12802134488
:10245C0013F8283CBB617B690E4A02FB03F2BB6993
:10246C00B2FBF3F37B6204E07B690B4A02FB03F3E0
:10247C007B627B6A3B6202E0064B3B6200BF3B6ABD
:10248C0018462837BD4690BC704700BF1C2D00086D
:10249C000010024000127A0000093D0080B485B0A3
:1024AC0000AF78600A4B1B680A4AA2FB03235B0A45
:1024BC007A6802FB03F3FB6000BFFB685A1EFA60EC
:1024CC00002BF9D100BF00BF1437BD4680BC70474C
:1024DC0034000020D34D621080B582B000AF78601C
:1024EC007B68002B01D1012341E07B6893F83D30E0
:1024FC00DBB2002B06D17B68002283F83C20786885
:10250C00FFF766F87B68022283F83D207B681A6827
:10251C007B6804331946104600F06AFA7B68012286
:10252C0083F846207B68012283F83E207B680122D9
:10253C0083F83F207B68012283F840207B680122CE
:10254C0083F841207B68012283F842207B680122BA
:10255C0083F843207B68012283F844207B680122A6
:10256C0083F845207B68012283F83D200023184620
:10257C000837BD4680BD000080B485B000AF7860E0
:10258C007B6893F83D30DBB2012B01D0012335E0A1
:10259C007B68022283F83D207B681B68DA687B68C5
:1025AC001B6842F00102DA607B681B68164A934292
:1025BC0009D07B681B68B3F1804F04D07B681B6823
:1025CC00124A934211D17B681B689B6803F0070386
:1025DC00FB60FB68062B10D07B681B681A687B6855
:1025EC001B6842F001021A6007E07B681B681A68DE
:1025FC007B681B6842F001021A60002318461437EE
:10260C00BD4680BC704700BF002C01400004004058
:10261C0080B582B000AF78607B681B681B6903F0E3
:10262C000203022B22D17B681B68DB6803F00203D8
:10263C00022B1BD17B681B686FF002021A617B684E
:10264C0001221A777B681B689B6903F00303002B3C
:10265C0003D0786800F0B1F905E0786800F0A4F9CF
:10266C00786800F0B3F97B6800221A777B681B68E6
:10267C001B6903F00403042B22D17B681B68DB6805
:10268C0003F00403042B1BD17B681B686FF004025E
:10269C001A617B6802221A777B681B689B6903F4BA
:1026AC004073002B03D0786800F087F905E0786858
:1026BC0000F07AF9786800F089F97B6800221A77C3
:1026CC007B681B681B6903F00803082B22D17B680D
:1026DC001B68DB6803F00803082B1BD17B681B68A5
:1026EC006FF008021A617B6804221A777B681B68FA
:1026FC00DB6903F00303002B03D0786800F05DF96D
:10270C0005E0786800F050F9786800F05FF97B68B4
:10271C0000221A777B681B681B6903F01003102BCF
:10272C0022D17B681B68DB6803F01003102B1BD1D4
:10273C007B681B686FF010021A617B6808221A779D
:10274C007B681B68DB6903F44073002B03D078684B
:10275C0000F033F905E0786800F026F9786800F0AD
:10276C0035F97B6800221A777B681B681B6903F0BC
:10277C000103012B0ED17B681B68DB6803F001039E
:10278C00012B07D17B681B686FF001021A61786816
:10279C00FEF758FE7B681B681B6903F08003802BD7
:1027AC000ED17B681B68DB6803F08003802B07D19C
:1027BC007B681B686FF080021A61786800F067FA1A
:1027CC007B681B681B6903F04003402B0ED17B68B0
:1027DC001B68DB6803F04003402B07D17B681B6848
:1027EC006FF040021A61786800F0F9F87B681B689A
:1027FC001B6903F02003202B0ED17B681B68DB6860
:10280C0003F02003202B07D17B681B686FF020029C
:10281C001A61786800F032FA00BF0837BD4680BDF7
:10282C0080B584B000AF786039607B6893F83C3039
:10283C00012B01D10223B3E07B68012283F83C20F9
:10284C007B68022283F83D207B681B689B68FB60D9
:10285C00FB6823F07703FB60FB6823F47F43FB608A
:10286C007B681B68FA689A603B681B68B3F5005F6D
:10287C003ED0B3F5005F00F28780B3F5805F00F0C7
:10288C008580B3F5805F7FD8702B1AD0702B7BD8E6
:10289C00602B50D0602B77D8502B3CD0502B73D85A
:1028AC00402B58D0402B6FD8302B64D0302B6BD8AA
:1028BC00202B60D0202B67D8002B5CD0102B5AD04B
:1028CC0062E07B6818683B6899683B685A683B68AB
:1028DC00DB6800F05CF97B681B689B68FB60FB683D
:1028EC0043F07703FB607B681B68FA689A604EE0E4
:1028FC007B6818683B6899683B685A683B68DB687A
:10290C0000F045F97B681B689A687B681B6842F489
:10291C0080429A603BE07B6818683B6859683B686A
:10292C00DB681A4600F0BCF87B681B68502118461F
:10293C0000F013F92BE07B6818683B6859683B681A
:10294C00DB681A4600F0DAF87B681B6860211846D1
:10295C0000F003F91BE07B6818683B6859683B681A
:10296C00DB681A4600F09CF87B681B68402118460F
:10297C0000F0F3F80BE07B681A683B681B6819469B
:10298C00104600F0EAF802E000BF00E000BF7B68F0
:10299C00012283F83D207B68002283F83C20002331
:1029AC0018461037BD4680BD80B483B000AF786048
:1029BC0000BF0C37BD4680BC704780B483B000AFFD
:1029CC00786000BF0C37BD4680BC704780B483B0C4
:1029DC0000AF786000BF0C37BD4680BC704780B438
:1029EC0083B000AF786000BF0C37BD4680BC704729
:1029FC0080B485B000AF786039607B681B68FB6081
:102A0C007B68254A934207D07B68B3F1804F03D093
:102A1C007B68224A934208D1FB6823F07003FB6069
:102A2C003B685B68FA681343FB607B681A4A934205
:102A3C0007D07B68B3F1804F03D07B68174A934271
:102A4C0008D1FB6823F44073FB603B68DB68FA68D1
:102A5C001343FB60FB6823F080023B685B69134304
:102A6C00FB607B68FA681A603B689A687B68DA627C
:102A7C003B681A687B689A627B68074A934203D169
:102A8C003B681A697B681A637B6801225A6100BF34
:102A9C001437BD4680BC7047002C01400004004038
:102AAC0080B487B000AFF860B9607A60FB681B6ACD
:102ABC007B61FB681B6A23F00102FB681A62FB68EE
:102ACC009B693B613B6923F0F0033B617B681B0115
:102ADC003A6913433B617B6923F00A037B617A6992
:102AEC00BB6813437B61FB683A699A61FB687A693E
:102AFC001A6200BF1C37BD4680BC704780B487B0DB
:102B0C0000AFF860B9607A60FB681B6A23F01002B2
:102B1C00FB681A62FB689B697B61FB681B6A3B6103
:102B2C007B6923F470437B617B681B037A691343D5
:102B3C007B613B6923F0A0033B61BB681B013A69D5
:102B4C0013433B61FB687A699A61FB683A691A62C4
:102B5C0000BF1C37BD4680BC704780B485B000AF49
:102B6C00786039607B689B68FB60FB6823F07003BE
:102B7C00FB603A68FB68134343F00703FB607B6818
:102B8C00FA689A6000BF1437BD4680BC704780B4A9
:102B9C0087B000AFF860B9607A603B60FB689B68F7
:102BAC007B617B6923F47F437B613B681A027B6802
:102BBC001A43BB6813437A6913437B61FB687A69D8
:102BCC009A6000BF1C37BD4680BC704780B485B08E
:102BDC0000AF786039607B6893F83C30012B01D1F1
:102BEC00022341E07B68012283F83C207B680222AF
:102BFC0083F83D207B681B685B68FB607B681B6807
:102C0C009B68BB60FB6823F07003FB603B681B6830
:102C1C00FA681343FB607B681B68FA685A607B6830
:102C2C001B68144A934209D07B681B68B3F1804F30
:102C3C0004D07B681B68104A93420CD1BB6823F00C
:102C4C008003BB603B685B68BA681343BB607B68FE
:102C5C001B68BA689A607B68012283F83D207B6808
:102C6C00002283F83C20002318461437BD4680BC54
:102C7C00704700BF002C01400004004080B483B0BA
:102C8C0000AF786000BF0C37BD4680BC704780B485
:102C9C0083B000AF786000BF0C37BD4680BC704776
:102CAC0070B500260C4D0D4C641BA410A64209D126
:102CBC0000F022F800260A4D0A4C641BA410A64210
:102CCC0005D170BD55F8043B98470136EEE755F831
:102CDC00043B98470136F2E73C2D00083C2D0008D8
:102CEC003C2D0008402D000803460244934200D1BD
:102CFC00704703F8011BF9E7F8B500BFF8BC08BC36
:102D0C009E467047F8B500BFF8BC08BC9E4670479D
:102D1C0002030405060708090A0B0C0D0E0F101010
:102D2C00000000000000000001020304060708096F
:042D3C003101000859
:042D40000D01000879
:102D4400010000000100000001000000010000007B
:102D5400010000000100000001000000010000006B
:102D6400010000000100000001000000010000005B
:102D74002C0100000024F4001000000001000000F9
:040000050800169544
:00000001FF
