:020000040800F2
:1000000000280020611B0008F11A0008F71A0008F8
:10001000FD1A0008031B0008091B0008000000006F
:100020000000000000000000000000000F1B00089E
:100030001B1B000800000000271B0008331B0008E2
:10004000A91B0008A91B0008A91B0008A91B000880
:10005000A91B0008A91B0008A91B0008A91B000870
:10006000A91B0008A91B0008A91B0008A91B000860
:10007000A91B0008A91B0008A91B0008A91B000850
:10008000A91B0008A91B0008A91B0008A91B000840
:10009000A91B0008A91B0008A91B0008A91B000830
:1000A000A91B0008A91B0008A91B0008A91B000820
:1000B000411B0008A91B000800000000A91B000844
:1000C000A91B00080000000000000000A91B000898
:1000D00000000000A91B0008A91B00080000000088
:1000E000A91B0008A91B0008A91B000800000000AC
:1000F0000000000000000000000000000000000000
:0C01000000000000000000005FF808F1A3
:10010C0010B5054C237833B9044B13B10448AFF345
:10011C0000800123237010BD40000020000000006F
:10012C00D031000808B5034B1BB103490348AFF3AA
:10013C00008008BD0000000044000020D031000801
:10014C0080B500AF1E4B1B68472B20D0472B34DCEF
:10015C00452B02D0462B07D02FE0194B46221A60B4
:10016C00642001F0FFFB28E0164B1B68012B21D10A
:10017C00144B00221A6000222021134802F011F8BF
:10018C000F4B47221A60642001F0ECFB12E00D4B80
:10019C001B68012B10D10B4B00221A60012220216D
:1001AC00094801F0FEFF064B46221A60642001F05C
:1001BC00D9FB01E000BF00E000BF00BF80BD00BF65
:1001CC0074000020900000200008014080B400AFB3
:1001DC00034B01221A6000BFBD4680BC704700BFB4
:1001EC005C00002080B400AF034B01221A6000BFFA
:1001FC00BD4680BC704700BF6000002080B400AFDB
:10020C00034B01221A6000BFBD4680BC704700BF83
:10021C006400002080B500AF1F4B1B681F4A1360A1
:10022C001F4B1B681C4A13604FF400511D4801F012
:10023C00A1FF03461A461A4B1A60174B1A68184B43
:10024C001B689A4226D1144B1A68144B1B689A42AD
:10025C0020D1124B1A68144B1B689A420ED00F4BCC
:10026C001B68114A1360104B1B68002B12D10F4BEB
:10027C004FF496721A60FFF7A9FF0BE00B4B1B684B
:10028C00013B0A4A1360094B1B68002B02D1074B38
:10029C0064221A6000BF80BD04000020080000200A
:1002AC0000000020001001400C0000203000002055
:1002BC0080B500AF234B1B68234A1360234B1B688C
:1002CC00204A13604FF48041214801F053FF03464C
:1002DC001A461E4B1A601B4B1A681C4B1B689A4221
:1002EC002DD1184B1A68184B1B689A4227D1164B04
:1002FC001A68184B1B689A420ED0134B1B68154A90
:10030C001360144B1B68002B19D1134B4FF49672CE
:10031C001A60FFF767FF12E00F4B1B68013B0E4A98
:10032C0013600D4B1B68002B09D10A4B1B68002B6B
:10033C0005D10A4B01221A60074B64221A6000BFD8
:10034C0080BD00BF14000020180000201000002009
:10035C00001001401C00002030000020680000202C
:10036C0080B500AF214B1B68214A1360214B1B68E1
:10037C001E4A13604FF400411F4801F0FBFE034678
:10038C001A461C4B1A60194B1A681A4B1B689A4276
:10039C0029D1164B1A68164B1B689A4223D1144B61
:1003AC001A68164B1B689A420ED0114B1B68134AE5
:1003BC001360124B1B68002B15D1114B4FF4967226
:1003CC001A60FFF71BFF0EE00D4B1B68013B0C4A3C
:1003DC0013600B4B1B68002B05D10A4B01221A60D2
:1003EC00074B64221A6000BF80BD00BF24000020B0
:1003FC002800002020000020001001402C000020CC
:10040C00300000206C00002080B582B000AF786016
:10041C007B68092B00F2808101A252F823F000BF07
:10042C00550400089D040008E50400082D0500088B
:10043C0075050008BD050008050600084D060008F6
:10044C0095060008DD06000800220221B54801F0DF
:10045C00A8FE00220421B34801F0A3FE00220821CB
:10046C00B04801F09EFE00221021AE4801F099FE2A
:10047C0000222021AB4801F094FE00224021A94823
:10048C0001F08FFE01228021A64801F08AFE44E192
:10049C0001220221A34801F084FE00220421A1487C
:1004AC0001F07FFE002208219E4801F07AFE012215
:1004BC0010219C4801F075FE01222021994801F081
:1004CC0070FE01224021974801F06BFE0122802131
:1004DC00944801F066FE20E100220221914801F0CF
:1004EC0060FE002204218F4801F05BFE01220821EE
:1004FC008C4801F056FE002210218A4801F051FE72
:10050C0000222021874801F04CFE01224021854821
:10051C0001F047FE00228021824801F042FEFCE0FF
:10052C00002202217F4801F03CFE002204217D487C
:10053C0001F037FE002208217A4801F032FE002239
:10054C001021784801F02DFE01222021754801F080
:10055C0028FE01224021734801F023FE0022802155
:10056C00704801F01EFED8E0012202216D4801F016
:10057C0018FE002204216B4801F013FE0022082112
:10058C00684801F00EFE01221021664801F009FEB8
:10059C0001222021634801F004FE00224021614821
:1005AC0001F0FFFD002280215E4801F0FAFDB4E06D
:1005BC00002202215B4801F0F4FD0122042159487C
:1005CC0001F0EFFD00220821564801F0EAFD00225F
:1005DC001021544801F0E5FD01222021514801F081
:1005EC00E0FD002240214F4801F0DBFD002280217C
:1005FC004C4801F0D6FD90E000220221494801F060
:10060C00D0FD01220421474801F0CBFD0022082136
:10061C00444801F0C6FD00221021424801F0C1FD02
:10062C00002220213F4801F0BCFD002240213D4822
:10063C0001F0B7FD002280213A4801F0B2FD6CE0D8
:10064C0000220221374801F0ACFD0022042135487C
:10065C0001F0A7FD00220821324801F0A2FD012281
:10066C001021304801F09DFD012220212D4801F080
:10067C0098FD012240212B4801F093FD012280219D
:10068C00284801F08EFD48E000220221254801F0A7
:10069C0088FD00220421234801F083FD002208215B
:1006AC00204801F07EFD002210211E4801F079FD4A
:1006BC00002220211B4801F074FD00224021194822
:1006CC0001F06FFD00228021164801F06AFD24E044
:1006DC0000220221134801F064FD0022042111487C
:1006EC0001F05FFD002208210E4801F05AFD0022A6
:1006FC0010210C4801F055FD01222021094801F080
:10070C0050FD00224021074801F04BFD00228021C2
:10071C00044801F046FD00E000BF00BF0837BD46AD
:10072C0080BD00BF000C014080B500AFA24B1B6820
:10073C00013B3A2B00F2698201A252F823F000BF70
:10074C0039080008170C0008170C0008170C0008D3
:10075C00170C0008170C0008170C0008170C0008E1
:10076C00170C0008170C0008170C0008170C0008D1
:10077C00170C0008170C0008170C0008170C0008C1
:10078C00170C0008170C0008170C0008170C0008B1
:10079C00170C0008170C0008170C0008170C0008A1
:1007AC00170C0008170C0008170C0008170C000891
:1007BC00170C0008170C0008170C0008170C000881
:1007CC00170C0008170C0008170C0008170C000871
:1007DC00170C0008170C0008170C0008170C000861
:1007EC00170C0008170C0008170C0008170C000851
:1007FC00170C0008170C0008170C0008170C000841
:10080C00170C000855080008A90800080909000879
:10081C0065090008DD0900083D0A00089D0A00086A
:10082C00FD0A00085B0B0008B90B00080020FFF75D
:10083C00EBFD614B0C221A604FF47A7001F07EF8DC
:10084C005E4B46221A60F3E15D4B1B68012B05D110
:10085C005B4B00221A60584B01221A60594B1B68E3
:10086C00012B05D1574B00221A600020FFF7CCFD5D
:10087C00554B1B68012B05D1534B00221A604E4B74
:10088C000D221A60514B1B68012B40F0C0814F4B5D
:10089C0000221A60484B0C221A60B8E1484B1B68C6
:1008AC00012B05D1464B00221A60434B01221A60E2
:1008BC00444B1B68012B0BD1424B00221A600120C8
:1008CC00FFF7A2FD3C4B32221A60642001F036F88F
:1008DC003D4B1B68012B05D13B4B00221A60364B5C
:1008EC000E221A60394B1B68012B40F09281374B5A
:1008FC0000221A60304B0D221A608AE1304B1B68C3
:10090C00012B05D12E4B00221A602B4B01221A60B1
:10091C002C4B1B68012B0BD12A4B00221A60022096
:10092C00FFF772FD244B33221A60642001F006F8A5
:10093C00254B1B68012B05D1234B00221A601E4B43
:10094C000F221A60214B1B68012B05D11F4B002273
:10095C001A60194B0E221A60194B1B68012B05D11A
:10096C00174B00221A60144B01221A60154B1B689E
:10097C00012B0BD1134B00221A600320FFF744FD0F
:10098C000D4B34221A60642000F0D8FF0E4B1B680C
:10099C00012B05D10C4B00221A60074B10221A6058
:1009AC000A4B1B68012B40F03681084B00221A6061
:1009BC00014B0F221A602EE1700000207400002001
:1009CC005C0000208C0000206000002064000020EF
:1009DC00984B1B68012B05D1964B00221A60964B45
:1009EC0001221A60954B1B68012B0BD1934B0022F3
:1009FC001A600420FFF708FD8F4B35221A60642023
:100A0C0000F09CFF8E4B1B68012B05D18C4B0022F8
:100A1C001A60894B11221A608A4B1B68012B40F01B
:100A2C00FC80884B00221A60834B10221A60F4E081
:100A3C00804B1B68012B05D17E4B00221A607E4B2C
:100A4C0001221A607D4B1B68012B0BD17B4B0022C2
:100A5C001A600520FFF7D8FC774B36221A60642009
:100A6C0000F06CFF764B1B68012B05D1744B0022F8
:100A7C001A60714B11221A60724B1B68012B40F0EB
:100A8C00CE80704B00221A606B4B11221A60C6E0AC
:100A9C00684B1B68012B05D1664B00221A60664B14
:100AAC0001221A60664B1B68012B05D1644B002296
:100ABC001A60614B12221A60604B1B68012B0BD120
:100ACC005E4B00221A600620FFF79EFC5A4B372221
:100ADC001A60642000F032FF5A4B1B68012B40F067
:100AEC00A080584B00221A60534B12221A6098E0D7
:100AFC00504B1B68012B05D14E4B00221A604E4BFC
:100B0C0001221A604D4B1B68012B0BD14B4B002261
:100B1C001A600720FFF778FC474B38221A606420D4
:100B2C0000F00CFF464B1B68012B05D1444B0022F7
:100B3C001A60414B13221A60424B1B68012B72D175
:100B4C00404B00221A603C4B13221A606BE0394B6D
:100B5C001B68012B05D1374B00221A60364B012242
:100B6C001A60374B1B68012B05D1354B00221A60DC
:100B7C00314B13221A60334B1B68012B05D1314BBF
:100B8C0000221A602C4B14221A602C4B1B68012B70
:100B9C004BD12A4B00221A600820FFF735FC264B5C
:100BAC0039221A60642000F0C9FE3EE0214B1B681C
:100BBC00012B05D11F4B00221A601F4B01221A601A
:100BCC001F4B1B68012B05D11D4B00221A601A4BC1
:100BDC0015221A601B4B1B68012B05D1194B0022E7
:100BEC001A60154B15221A60144B1B68012B1ED171
:100BFC00124B00221A600920FFF706FC0E4B3A221A
:100C0C001A60642000F09AFE11E000BF10E000BFF3
:100C1C000EE000BF0CE000BF0AE000BF08E000BF20
:100C2C0006E000BF04E000BF02E000BF00E000BF30
:100C3C0000BF80BD5C000020700000208C000020F4
:100C4C00600000206400002080B500AF9F4B1B6843
:100C5C001E3B092B00F2868101A252F823F000BF43
:100C6C00950C0008DD0C0008250D00086D0D000822
:100C7C00B50D0008030E00084B0E0008930E00087B
:100C8C00E90E00082D0F00080020FFF7BDFB904B6C
:100C9C001B68012B05D18E4B00221A608B4B012255
:100CAC001A608C4B1B68012B40F05E81894B002233
:100CBC001A60894B1B68012B40F05681864B002231
:100CCC001A60824B1F221A60642000F023FE4BE155
:100CDC000120FFF799FB7E4B1B68012B05D17C4B48
:100CEC0000221A60794B01221A607A4B1B68012B87
:100CFC0040F03C81774B00221A60774B1B68012B2C
:100D0C0040F03481744B00221A60704B20221A6020
:100D1C00642000F0FFFD29E10220FFF775FB6C4B0E
:100D2C001B68012B05D16A4B00221A60674B01220C
:100D3C001A60684B1B68012B40F01A81654B00222E
:100D4C001A60654B1B68012B40F01281624B00222C
:100D5C001A605E4B21221A60642000F0DBFD07E173
:100D6C000320FFF751FB5A4B1B68012B05D1584B45
:100D7C0000221A60554B01221A60564B1B68012B3E
:100D8C0040F0F880534B00221A60534B1B68012B28
:100D9C0040F0F080504B00221A604C4B22221A601B
:100DAC00642000F0B7FDE5E00420FFF72DFB484B75
:100DBC001B68012B05D1464B00221A60434B0122C4
:100DCC001A60444B1B68012B40F0D680414B00222B
:100DDC001A60404B00221A603F4B1B68012B40F0FD
:100DEC00CB803D4B00221A60384B23221A606420C2
:100DFC0000F090FDC0E00520FFF706FB344B1B68AC
:100E0C00012B05D1324B00221A60304B01221A60A3
:100E1C00304B1B68012B40F0B1802E4B00221A6026
:100E2C002D4B1B68012B40F0A9802B4B00221A6024
:100E3C00264B24221A60642000F06CFD9EE0244BAB
:100E4C001B68012B05D1224B00221A601F4B01227B
:100E5C001A600620FFF7D8FA1E4B1B68012B40F0D6
:100E6C008F801C4B00221A601B4B1B68012B40F01F
:100E7C008780194B00221A60144B25221A606420BB
:100E8C0000F048FD7CE00720FFF7BEFA104B1B6812
:100E9C00012B05D10E4B00221A600C4B01221A605B
:100EAC000C4B1B68012B6DD10A4B00221A600A4BAC
:100EBC001B68012B66D1084B00221A60034B2622BB
:100ECC001A60642000F026FD5CE000BF700000207A
:100EDC005C00002088000020680000200820FFF73C
:100EEC0093FA2C4B1B68012B05D12A4B00221A605C
:100EFC00294B01221A60294B1B68012B44D1274B2B
:100F0C0000221A60264B1B68012B3DD1244B00227A
:100F1C001A60214B27221A60642000F0FBFC33E09E
:100F2C001C4B1B68012B05D11A4B00221A601A4B63
:100F3C0001221A600920FFF767FA184B1B68012B76
:100F4C0024D1164B00221A60154B1B68012B1DD1A6
:100F5C00134B00221A60104B1E221A60642000F002
:100F6C00D9FC13E000BF12E000BF10E000BF0EE0A0
:100F7C0000BF0CE000BF0AE000BF08E000BF06E0C5
:100F8C0000BF04E000BF02E000BF00E000BF00BFF4
:100F9C0080BD00BF5C000020700000208800002095
:100FAC006800002080B500AF844B1B680C3B092BFC
:100FBC0000F25C8301A252F823F000BFF10F00088D
:100FCC008110000825110008E5110008891200089D
:100FDC002D130008D11300089114000835150008D2
:100FEC00D71500080020FFF70FFA754B1B68012B73
:100FFC0009D1734B00221A60704B0D221A604FF40A
:10100C007A7000F09BFC6F4B1B68012B08D16D4B69
:10101C0000221A60694B1E221A60642000F07AFCD0
:10102C00694B1B68012B09D1674B00221A60634B7B
:10103C0015221A604FF47A7000F080FC634B1B6829
:10104C00012B08D1614B00221A605C4B32221A60D2
:10105C00642000F073FC5E4B1B68012B40F008838E
:10106C005B4B00221A60554B1E221A60642000F064
:10107C0051FCFDE20120FFF7C7F9564B1B68012B11
:10108C0005D1544B00221A604C4B01221A604C4B78
:10109C001B68012B09D14A4B00221A60474B0E22C8
:1010AC001A604FF47A7000F049FC464B1B68012B18
:1010BC0008D1444B00221A60404B1F221A60642056
:1010CC0000F028FC404B1B68012B09D13E4B002241
:1010DC001A603A4B0C221A604FF47A7000F02EFC16
:1010EC003A4B1B68012B08D1384B00221A60334B4A
:1010FC0033221A60642000F021FC354B1B68012B55
:10110C0040F0B882324B00221A602C4B1F221A601E
:10111C00642000F0FFFBADE20220FFF775F92D4BC8
:10112C001B68012B05D12B4B00221A60234B01228B
:10113C001A60234B1B68012B09D1214B00221A602A
:10114C001E4B0F221A604FF47A7000F0F7FB1D4B08
:10115C001B68012B08D11B4B00221A60174B202255
:10116C001A60642000F0D6FB174B1B68012B09D1C9
:10117C00154B00221A60114B0D221A604FF47A7035
:10118C0000F0DCFB114B1B68012B08D10F4B00222C
:10119C001A600A4B34221A60642000F0CFFB0C4B0F
:1011AC001B68012B40F06882094B00221A60034B2C
:1011BC0020221A60642000F0ADFB5DE2700000207C
:1011CC006000002068000020640000208C000020DB
:1011DC006C0000205C0000200320FFF715F9A24BE7
:1011EC001B68012B05D1A04B00221A609F4B0122DA
:1011FC001A609F4B1B68012B09D19D4B00221A6072
:10120C009A4B10221A604FF47A7000F097FB994BAE
:10121C001B68012B08D1974B00221A60934B21229B
:10122C001A60642000F076FB934B1B68012B09D1EC
:10123C00914B00221A608D4B0E221A604FF47A707B
:10124C0000F07CFB8D4B1B68012B08D18B4B0022D3
:10125C001A60864B35221A60642000F06FFB884BB5
:10126C001B68012B40F00A82854B00221A607F4BD1
:10127C0021221A60642000F04DFBFFE10420FFF7EF
:10128C00C3F8794B1B68012B05D1774B00221A60F0
:10129C00764B01221A60764B1B68012B09D1744BDB
:1012AC0000221A60714B11221A604FF47A7000F010
:1012BC0045FB704B1B68012B08D16E4B00221A604A
:1012CC006A4B22221A60642000F024FB6A4B1B68D4
:1012DC00012B09D1684B00221A60644B0F221A6053
:1012EC004FF47A7000F02AFB644B1B68012B08D179
:1012FC00624B00221A605D4B36221A60642000F0AB
:10130C001DFB5F4B1B68012B40F0BA815C4B00222C
:10131C001A60564B22221A60642000F0FBFAAFE1EF
:10132C00514B1B68012B05D14F4B00221A604F4BC0
:10133C0001221A600520FFF767F84D4B1B68012B43
:10134C0009D14B4B00221A60484B12221A604FF401
:10135C007A7000F0F3FA474B1B68012B08D1454B10
:10136C0000221A60414B23221A60642000F0D2FA4A
:10137C00414B1B68012B09D13F4B00221A603B4BA0
:10138C0010221A604FF47A7000F0D8FA3B4B1B68AD
:10139C00012B08D1394B00221A60344B37221A60CA
:1013AC00642000F0CBFA364B1B68012B40F06A81AD
:1013BC00334B00221A602D4B23221A60642000F05C
:1013CC00A9FA5FE10620FFF71FF8274B1B68012BDA
:1013DC0005D1254B00221A60244B01221A60244BA4
:1013EC001B68012B09D1224B00221A601F4B1322C0
:1013FC001A604FF47A7000F0A1FA1E4B1B68012B97
:10140C0008D11C4B00221A60184B24221A6064204D
:10141C0000F080FA184B1B68012B09D1164B0022E7
:10142C001A60124B11221A604FF47A7000F086FA8F
:10143C00124B1B68012B08D1104B00221A600B4B6E
:10144C0038221A60642000F079FA0D4B1B68012BCE
:10145C0040F01A810A4B00221A60044B24221A60B5
:10146C00642000F057FA0FE15C00002070000020AF
:10147C006000002068000020640000208C00002028
:10148C006C0000200720FEF7BFFF844B1B68012B6C
:10149C0005D1824B00221A60814B01221A60814BCC
:1014AC001B68012B09D17F4B00221A607C4B142244
:1014BC001A604FF47A7000F041FA7B4B1B68012BD9
:1014CC0008D1794B00221A60754B25221A606420D2
:1014DC0000F020FA754B1B68012B09D1734B0022CD
:1014EC001A606F4B12221A604FF47A7000F026FAD1
:1014FC006F4B1B68012B08D16D4B00221A60684B97
:10150C0039221A60642000F019FA6A4B1B68012B0F
:10151C0040F0BC80674B00221A60614B25221A6098
:10152C00642000F0F7F9B1E05C4B1B68012B05D18E
:10153C005A4B00221A605A4B01221A600820FEF7FF
:10154C0063FF584B1B68012B09D1564B00221A60C4
:10155C00534B15221A604FF47A7000F0EFF9524B8E
:10156C001B68012B08D1504B00221A604C4B2622D1
:10157C001A60642000F0CEF94C4B1B68012B09D18A
:10158C004A4B00221A60464B13221A604FF47A70B1
:10159C0000F0D4F9464B1B68012B08D1444B0022B8
:1015AC001A603F4B3A221A60642000F0C7F9414B95
:1015BC001B68012B6CD13F4B00221A60384B262242
:1015CC001A60642000F0A6F962E00920FEF71CFF07
:1015DC00324B1B68012B09D1304B00221A60304B67
:1015EC0001221A604FF47A7000F0A8F92D4B1B6899
:1015FC00012B05D12B4B00221A60294B01221A60BA
:10160C00294B1B68012B08D1274B00221A60244B55
:10161C0027221A60642000F07DF9254B1B68012BF2
:10162C0009D1234B00221A601D4B3B221A604FF448
:10163C007A7000F083F91D4B1B68012B08D11B4BF2
:10164C0000221A60164B14221A60C82000F076F99A
:10165C00184B1B68012B1DD1164B00221A60104B26
:10166C0027221A60642000F055F913E000BF12E045
:10167C0000BF10E000BF0EE000BF0CE000BF0AE0AE
:10168C0000BF08E000BF06E000BF04E000BF02E0BE
:10169C0000BF00E000BF00BF80BD00BF5C000020A9
:1016AC007000002060000020680000206400002012
:1016BC008C0000206C00002080B500AF00F070FAA8
:1016CC0000F01CF800F0A2F800F054F8084801F003
:1016DC00B9F9084B01221A60074B45221A60FFF733
:1016EC0023F8FFF75FFCFFF7AFFAFEF729FDF6E7EB
:1016FC0098000020700000207400002080B590B08D
:10170C0000AF07F1180328220021184601F052FD02
:10171C003B1D00221A605A609A60DA601A6102233B
:10172C00BB610123BB621023FB6200237B6307F1C7
:10173C001803184600F04EFD0346002B01D000F0B4
:10174C00E3F80F237B600023BB600023FB600023C6
:10175C003B6100237B613B1D0021184600F0BAFF62
:10176C000346002B01D000F0CFF800BF4037BD4638
:10177C0080BD000080B586B000AF07F108030022E1
:10178C001A605A609A60DA603B4600221A605A600E
:10179C001D4B4FF080421A601B4B41F63F725A6052
:1017AC00194B00229A60184B0922DA60164B002262
:1017BC001A61154B00229A61134801F0F3F80346A5
:1017CC00002B01D000F0A0F84FF48053BB6007F160
:1017DC00080319460C4801F089FA0346002B01D086
:1017EC0000F092F800233B6000237B603B461946D7
:1017FC00054801F051FC0346002B01D000F084F8A1
:10180C0000BF1837BD4680BD9800002080B588B059
:10181C0000AF07F1100300221A605A609A60DA6078
:10182C002D4B9B692C4A43F0100393612A4B9B6907
:10183C0003F01003FB60FB68274B9B69264A43F0BF
:10184C0004039361244B9B6903F00403BB60BB68E6
:10185C00214B9B69204A43F0080393611E4B9B6903
:10186C0003F008037B607B68002270211B4800F0AA
:10187C0098FC0022FE211A4800F093FC4FF46043C0
:10188C003B6100237B610123BB6107F11003194607
:10189C00144800F0F5FA70233B6101237B610023AF
:1018AC00BB610223FB6107F1100319460B4800F0E2
:1018BC00E7FAFE233B6101237B610023BB6102231A
:1018CC00FB6107F110031946054800F0D9FA00BF77
:1018DC002037BD4680BD00BF00100240000801400B
:1018EC00000C01400010014080B582B000AF786060
:1018FC0000F04CF8FEF734FDFEF78CFCFEF7D8FC3C
:10190C0000BF0837BD4680BD80B400AF72B600BFC3
:10191C00FEE7000080B483B000AF7860054A7B68B6
:10192C001360054B00221A6000BF0C37BD4680BC0B
:10193C00704700BF780000208800002080B483B07E
:10194C0000AF7860054A7B681360054B00221A6073
:10195C0000BF0C37BD4680BC704700BF7C00002028
:10196C008C00002080B483B000AF7860054A7B689F
:10197C001360054B00221A6000BF0C37BD4680BCBB
:10198C00704700BF800000209000002080B400AFA2
:10199C00214B1B68002B04D01F4B1B68013B1E4ABC
:1019AC0013601D4B1B68002B02DC1C4B01221A60C0
:1019BC001B4B1B68002B04D0194B1B68013B184AAE
:1019CC001360174B1B68002B02DC164B01221A60AC
:1019DC00154B1B68002B04D0134B1B68013B124AA0
:1019EC001360114B1B68002B02DC104B01221A6098
:1019FC000F4B1B68002B04D00D4B1B68013B0C4A92
:101A0C0013600B4B1B68002B02DC0A4B01221A6083
:101A1C0000BFBD4680BC70477800002088000020C5
:101A2C007C0000208C000020800000209000002012
:101A3C00840000209400002080B485B000AF154BCA
:101A4C009B69144A43F001039361124B9B6903F0A9
:101A5C000103BB60BB680F4BDB690E4A43F080533C
:101A6C00D3610C4BDB6903F080537B607B680A4BC2
:101A7C005B68FB60FB6823F0E063FB60FB6843F092
:101A8C008063FB60044AFB68536000BF1437BD469B
:101A9C0080BC7047001002400000014080B584B04B
:101AAC0000AF78607B681B68B3F1804F13D10C4B8F
:101ABC00DB690B4A43F00103D361094BDB6903F08B
:101ACC000103FB60FB68002200211C2000F0A1F93F
:101ADC001C2000F0BAF900BF1037BD4680BD00BF16
:101AEC000010024080B400AFFEE780B400AFFEE708
:101AFC0080B400AFFEE780B400AFFEE780B400AF67
:101B0C00FEE780B400AF00BFBD4680BC704780B418
:101B1C0000AF00BFBD4680BC704780B400AF00BFB3
:101B2C00BD4680BC704780B500AF00F07FF800BFA9
:101B3C0080BD000080B500AF024800F0CFFF00BFB1
:101B4C0080BD00BF9800002080B400AF00BFBD4630
:101B5C0080BC70470C480D490D4A002302E0D45854
:101B6C00C4500433C4188C42F9D30A4A0A4C0023DB
:101B7C0001E013600432A242FBD3FFF7E5FF01F052
:101B8C00F5FAFFF799FD7047000000204000002097
:101B9C001032000840000020E4000020FEE70000A6
:101BAC0080B500AF084B1B68074A43F01003136065
:101BBC00032000F023F90F2000F008F8FFF73CFF9A
:101BCC000023184680BD00BF0020024080B582B0C3
:101BDC0000AF7860124B1A68124B1B7819464FF401
:101BEC007A73B3FBF1F3B2FBF3F3184600F03BF955
:101BFC000346002B01D001230EE07B680F2B0AD883
:101C0C00002279684FF0FF3000F003F9064A7B6838
:101C1C001360002300E0012318460837BD4680BD41
:101C2C00340000203C0000203800002080B400AFBD
:101C3C00054B1B781A46054B1B681344034A13606B
:101C4C0000BFBD4680BC70473C000020E000002077
:101C5C0080B400AF024B1B681846BD4680BC704771
:101C6C00E000002080B485B000AF78607B6803F0A2
:101C7C000703FB600C4BDB68BB60BA684FF6FF03D5
:101C8C001340BB60FB681A02BB68134343F0BF638D
:101C9C0043F40033BB60044ABB68D36000BF143705
:101CAC00BD4680BC704700BF00ED00E080B400AFC3
:101CBC00044BDB681B0A03F007031846BD4680BCC7
:101CCC00704700BF00ED00E080B483B000AF034666
:101CDC00FB7197F90730002B0BDBFB7903F01F022C
:101CEC00064997F907305B09012000FA02F241F826
:101CFC00232000BF0C37BD4680BC704700E100E0DC
:101D0C0080B483B000AF03463960FB7197F907309C
:101D1C00002B0ADB3B68DAB20C4997F90730120149
:101D2C00D2B20B4483F800230AE03B68DAB20849CC
:101D3C00FB7903F00F03043B1201D2B20B441A7669
:101D4C0000BF0C37BD4680BC704700BF00E100E00F
:101D5C0000ED00E080B489B000AFF860B9607A6043
:101D6C00FB6803F00703FB61FB69C3F10703042B5A
:101D7C0028BF0423BB61FB690433062B02D9FB6922
:101D8C00033B00E000237B614FF0FF32BB6902FA9A
:101D9C0003F3DA43BB681A407B699A404FF0FF317A
:101DAC007B6901FA03F3D9437B680B401343184654
:101DBC002437BD4680BC704780B582B000AF7860D8
:101DCC007B68013BB3F1807F01D301230FE00A4A0A
:101DDC007B68013B53600F214FF0FF30FFF790FF02
:101DEC00054B00229A60044B07221A600023184608
:101DFC000837BD4680BD00BF10E000E080B582B062
:101E0C0000AF78607868FFF72DFF00BF0837BD463C
:101E1C0080BD80B586B000AF0346B9607A60FB73B5
:101E2C0000237B61FFF742FF78617A68B9687869B3
:101E3C00FFF790FF024697F90F3011461846FFF74F
:101E4C005FFF00BF1837BD4680BD80B582B000AFC4
:101E5C000346FB7197F907301846FFF735FF00BFB3
:101E6C000837BD4680BD80B582B000AF7860786819
:101E7C00FFF7A2FF034618460837BD4680BD000099
:101E8C0080B48BB000AF7860396000237B62002394
:101E9C003B6248E101227B6A02FA03F3FB613B6877
:101EAC001B68FA691340BB61BA69FB699A4240F03E
:101EBC0037813B685B68A34A93425ED0A14A934248
:101ECC0075D8A14A934258D09F4A93426FD89F4AE3
:101EDC00934252D09D4A934269D89D4A93424CD02A
:101EEC009B4A934263D89B4A934246D0994A934269
:101EFC005DD8122B2AD8122B59D801A252F823F0F4
:101F0C00871F0008611F0008731F0008B51F000819
:101F1C00BB1F0008BB1F0008BB1F0008BB1F00082D
:101F2C00BB1F0008BB1F0008BB1F0008BB1F00081D
:101F3C00BB1F0008BB1F0008BB1F0008BB1F00080D
:101F4C00BB1F0008691F00087D1F0008824A9342CE
:101F5C0013D02CE03B68DB683B6229E03B68DB6814
:101F6C0004333B6224E03B68DB6808333B621FE0D0
:101F7C003B68DB680C333B621AE03B689B68002BC8
:101F8C0002D104233B6213E03B689B68012B05D113
:101F9C0008233B627B68FA691A6109E008233B62FB
:101FAC007B68FA695A6103E000233B6200E000BFE2
:101FBC00BB69FF2B01D87B6801E07B6804337B6134
:101FCC00BB69FF2B02D87B6A9B0002E07B6A083B53
:101FDC009B003B617B691A680F213B6901FA03F393
:101FEC00DB431A40396A3B6901FA03F31A437B69F4
:101FFC001A603B685B6803F08053002B00F0908004
:10200C00564B9B69554A43F001039361534B9B69B3
:10201C0003F00103BB60BB68514A7B6A9B08023327
:10202C0052F82330FB607B6A03F003039B000F2202
:10203C0002FA03F3DB43FA681340FB607B68494AFE
:10204C0093420DD07B68484A934207D07B68474A3D
:10205C00934201D1022304E0032302E0012300E0B8
:10206C0000237A6A02F0030292009340FA68134349
:10207C00FB603B497B6A9B080233FA6841F82320DA
:10208C003B685B6803F48033002B06D0384B1A682E
:10209C003749BB6913430B6006E0354B1A68BB69C3
:1020AC00DB43334913400B603B685B6803F400333C
:1020BC00002B06D02E4B5A682D49BB6913434B603D
:1020CC0006E02B4B5A68BB69DB43294913404B6034
:1020DC003B685B6803F48013002B06D0244B9A6892
:1020EC002349BB6913438B6006E0214B9A68BB699B
:1020FC00DB431F4913408B603B685B6803F40013A0
:10210C00002B06D01A4BDA681949BB691343CB6014
:10211C0006E0174BDA68BB69DB4315491340CB600B
:10212C007B6A01337B623B681A687B6A22FA03F391
:10213C00002B7FF4AFAE00BF00BF2C37BD4680BC78
:10214C00704700BF00003210000031100000221058
:10215C0000002110000012100000111000100240AD
:10216C000000014000080140000C0140001001403B
:10217C000004014080B485B000AF78600B467B80D2
:10218C007B689A687B881340002B02D00123FB7379
:10219C0001E00023FB73FB7B18461437BD4680BC63
:1021AC00704780B483B000AF78600B467B801346D9
:1021BC007B707B78002B03D07A887B681A6103E0F4
:1021CC007B881A047B681A6100BF0C37BD4680BC43
:1021DC007047000080B586B000AF78607B68002B3C
:1021EC0001D101236CE27B681B6803F00103002B17
:1021FC0000F08780924B5B6803F00C03042B0CD02F
:10220C008F4B5B6803F00C03082B12D18C4B5B6873
:10221C0003F48033B3F5803F0BD1894B1B6803F477
:10222C000033002B6CD07B685B68002B68D10123DA
:10223C0046E27B685B68B3F5803F06D1804B1B6838
:10224C007F4A43F4803313602EE07B685B68002B7D
:10225C000CD17B4B1B687A4A23F480331360784B88
:10226C001B68774A23F4802313601DE07B685B684E
:10227C00B3F5A02F0CD1724B1B68714A43F4802329
:10228C0013606F4B1B686E4A43F4803313600BE092
:10229C006B4B1B686A4A23F480331360684B1B68D2
:1022AC00674A23F4802313607B685B68002B13D090
:1022BC00FFF7CEFC386108E0FFF7CAFC02463B6929
:1022CC00D31A642B01D90323FAE15D4B1B6803F489
:1022DC000033002BF0D014E0FFF7BAFC386108E0B3
:1022EC00FFF7B6FC02463B69D31A642B01D90323D2
:1022FC00E6E1534B1B6803F40033002BF0D100E0F4
:10230C0000BF7B681B6803F00203002B63D04C4BAF
:10231C005B6803F00C03002B0BD0494B5B6803F09C
:10232C000C03082B1CD1464B5B6803F48033002B49
:10233C0016D1434B1B6803F00203002B05D07B68BE
:10234C001B69012B01D00123BAE13D4B1B6823F023
:10235C00F8027B685B69DB00394913430B603AE098
:10236C007B681B69002B20D0364B01221A60FFF7CB
:10237C006FFC386108E0FFF76BFC02463B69D31A2F
:10238C00022B01D903239BE12D4B1B6803F00203A5
:10239C00002BF0D02A4B1B6823F0F8027B685B699A
:1023AC00DB00274913430B6015E0264B00221A6013
:1023BC00FFF74EFC386108E0FFF74AFC02463B6928
:1023CC00D31A022B01D903237AE11D4B1B6803F0AE
:1023DC000203002BF0D17B681B6803F00803002B71
:1023EC003AD07B689B69002B19D0174B01221A60DD
:1023FC00FFF72EFC386108E0FFF72AFC02463B6928
:10240C00D31A022B01D903235AE10D4B5B6A03F05B
:10241C000203002BF0D0012000F0A6FA1CE00A4BBE
:10242C0000221A60FFF714FC38610FE0FFF710FC74
:10243C0002463B69D31A022B08D9032340E100BFA3
:10244C000010024000004242800442429E4B5B6AF4
:10245C0003F00203002BE9D17B681B6803F0040333
:10246C00002B00F0A6800023FB75974BDB6903F073
:10247C008053002B0DD1944BDB69934A43F080536E
:10248C00D361914BDB6903F08053BB60BB680123C4
:10249C00FB758E4B1B6803F48073002B18D18B4B90
:1024AC001B688A4A43F480731360FFF7D1FB3861D1
:1024BC0008E0FFF7CDFB02463B69D31A642B01D928
:1024CC000323FDE0814B1B6803F48073002BF0D0D9
:1024DC007B68DB68012B06D17B4B1B6A7A4A43F085
:1024EC00010313622DE07B68DB68002B0CD1764B6B
:1024FC001B6A754A23F001031362734B1B6A724A01
:10250C0023F0040313621CE07B68DB68052B0CD101
:10251C006D4B1B6A6C4A43F0040313626A4B1B6AD3
:10252C00694A43F0010313620BE0674B1B6A664A6E
:10253C0023F001031362644B1B6A634A23F0040308
:10254C0013627B68DB68002B15D0FFF781FB3861C9
:10255C000AE0FFF77DFB02463B69D31A41F2883251
:10256C00934201D90323ABE0574B1B6A03F00203E0
:10257C00002BEED014E0FFF76BFB38610AE0FFF79D
:10258C0067FB02463B69D31A41F28832934201D968
:10259C00032395E04C4B1B6A03F00203002BEED196
:1025AC00FB7D012B05D1484BDB69474A23F0805357
:1025BC00D3617B68DB69002B00F08180424B5B6848
:1025CC0003F00C03082B61D07B68DB69022B46D12E
:1025DC003F4B00221A60FFF73BFB386108E0FFF726
:1025EC0037FB02463B69D31A022B01D9032367E060
:1025FC00354B1B6803F00073002BF0D17B681B6A12
:10260C00B3F5803F08D1304B5B6823F400327B6814
:10261C009B682D4913434B602B4B5B6823F474125E
:10262C007B68196A7B685B6A0B43274913434B60D1
:10263C00274B01221A60FFF70BFB386108E0FFF70C
:10264C0007FB02463B69D31A022B01D9032337E05F
:10265C001D4B1B6803F00073002BF0D02FE01C4BBC
:10266C0000221A60FFF7F4FA386108E0FFF7F0FA7D
:10267C0002463B69D31A022B01D9032320E0124BEB
:10268C001B6803F00073002BF0D118E07B68DB694A
:10269C00012B01D1012313E00B4B5B68FB60FB6842
:1026AC0003F480327B681B6A9A4206D1FB6803F400
:1026BC0070127B685B6A9A4201D0012300E0002310
:1026CC0018461837BD4680BD00100240007000400F
:1026DC006000424280B584B000AF786039607B689E
:1026EC00002B01D10123D0E06A4B1B6803F00703D8
:1026FC003A689A4210D9674B1B6823F00702654968
:10270C003B6813430B60634B1B6803F007033A6889
:10271C009A4201D00123B8E07B681B6803F00203E6
:10272C00002B20D07B681B6803F00403002B05D022
:10273C00594B5B68584A43F4E06353607B681B68F1
:10274C0003F00803002B05D0534B5B68524A43F44B
:10275C0060535360504B5B6823F0F0027B689B68BE
:10276C004D4913434B607B681B6803F00103002B3E
:10277C0040D07B685B68012B07D1474B1B6803F487
:10278C000033002B15D101237FE07B685B68022BA3
:10279C0007D1414B1B6803F00073002B09D10123B7
:1027AC0073E03D4B1B6803F00203002B01D10123A6
:1027BC006BE0394B5B6823F003027B685B6836493E
:1027CC0013434B60FFF744FAF8600AE0FFF740FA56
:1027DC000246FB68D31A41F28832934201D9032393
:1027EC0053E02D4B5B6803F00C027B685B689B002D
:1027FC009A42EBD1274B1B6803F007033A689A42C5
:10280C0010D2244B1B6823F0070222493B68134368
:10281C000B60204B1B6803F007033A689A4201D007
:10282C00012332E07B681B6803F00403002B08D003
:10283C00194B5B6823F4E0627B68DB681649134331
:10284C004B607B681B6803F00803002B09D0124B0C
:10285C005B6823F460527B681B69DB000E491343F1
:10286C004B6000F021F802460B4B5B681B0903F030
:10287C000F030A49CB5C22FA03F3094A1360094B94
:10288C001B681846FFF7A2F9002318461037BD46FF
:10289C0080BD00BF0020024000100240F83100084B
:1028AC00340000203800002090B48AB000AF2A4BCE
:1028BC003C1D0FCB84E80F0040F201233B8000232A
:1028CC00FB610023BB6100237B6200237B6100233F
:1028DC003B62224B5B68FB61FB6903F00C03042B2E
:1028EC0002D0082B03D02DE01D4B3B622DE0FB6981
:1028FC009B0C03F00F0307F12802134413F8243C3C
:10290C007B61FB6903F48033002B13D0134B5B68A2
:10291C005B0C03F0010307F12802134413F8283C65
:10292C00BB617B690E4A02FB03F2BB69B2FBF3F39A
:10293C007B6204E07B690B4A02FB03F37B627B6ADC
:10294C003B6202E0064B3B6200BF3B6A18462837ED
:10295C00BD4690BC704700BFE83100080010024033
:10296C0000127A0000093D0080B485B000AF786099
:10297C000A4B1B680A4AA2FB03235B0A7A6802FB18
:10298C0003F3FB6000BFFB685A1EFA60002BF9D101
:10299C0000BF00BF1437BD4680BC70473400002018
:1029AC00D34D621080B582B000AF78607B68002B8D
:1029BC0001D1012341E07B6893F83D30DBB2002B61
:1029CC0006D17B68002283F83C207868FFF766F814
:1029DC007B68022283F83D207B681A687B6804338D
:1029EC001946104600F06AFA7B68012283F84620EB
:1029FC007B68012283F83E207B68012283F83F200C
:102A0C007B68012283F840207B68012283F84120F7
:102A1C007B68012283F842207B68012283F84320E3
:102A2C007B68012283F844207B68012283F84520CF
:102A3C007B68012283F83D20002318460837BD46E9
:102A4C0080BD000080B485B000AF78607B6893F8DF
:102A5C003D30DBB2012B01D0012335E07B68022233
:102A6C0083F83D207B681B68DA687B681B6842F042
:102A7C000102DA607B681B68164A934209D07B68B6
:102A8C001B68B3F1804F04D07B681B68124A9342D9
:102A9C0011D17B681B689B6803F00703FB60FB6824
:102AAC00062B10D07B681B681A687B681B6842F089
:102ABC0001021A6007E07B681B681A687B681B6858
:102ACC0042F001021A60002318461437BD4680BC40
:102ADC00704700BF002C01400004004080B582B05C
:102AEC0000AF78607B681B681B6903F00203022B44
:102AFC0022D17B681B68DB6803F00203022B1BD11D
:102B0C007B681B686FF002021A617B6801221A77DE
:102B1C007B681B689B6903F00303002B03D0786868
:102B2C0000F0B1F905E0786800F0A4F9786800F0DD
:102B3C00B3F97B6800221A777B681B681B6903F06A
:102B4C000403042B22D17B681B68DB6803F00403AD
:102B5C00042B1BD17B681B686FF004021A617B6825
:102B6C0002221A777B681B689B6903F44073002B65
:102B7C0003D0786800F087F905E0786800F07AF9FE
:102B8C00786800F089F97B6800221A777B681B68EB
:102B9C001B6903F00803082B22D17B681B68DB68D8
:102BAC0003F00803082B1BD17B681B686FF008022D
:102BBC001A617B6804221A777B681B68DB6903F057
:102BCC000303002B03D0786800F05DF905E078680A
:102BDC0000F050F9786800F05FF97B6800221A77F2
:102BEC007B681B681B6903F01003102B22D17B68D8
:102BFC001B68DB6803F01003102B1BD17B681B6870
:102C0C006FF010021A617B6808221A777B681B68C8
:102C1C00DB6903F44073002B03D0786800F033F9C0
:102C2C0005E0786800F026F9786800F035F97B68E3
:102C3C0000221A777B681B681B6903F00103012BC8
:102C4C000ED17B681B68DB6803F00103012B07D1F5
:102C5C007B681B686FF001021A617868FEF744FE0E
:102C6C007B681B681B6903F08003802B0ED17B688B
:102C7C001B68DB6803F08003802B07D17B681B6823
:102C8C006FF080021A61786800F067FA7B681B6845
:102C9C001B6903F04003402B0ED17B681B68DB687B
:102CAC0003F04003402B07D17B681B686FF0400298
:102CBC001A61786800F0F9F87B681B681B6903F0EF
:102CCC002003202B0ED17B681B68DB6803F02003EC
:102CDC00202B07D17B681B686FF020021A61786883
:102CEC0000F032FA00BF0837BD4680BD80B584B015
:102CFC0000AF786039607B6893F83C30012B01D1D0
:102D0C000223B3E07B68012283F83C207B6802221B
:102D1C0083F83D207B681B689B68FB60FB6823F095
:102D2C007703FB60FB6823F47F43FB607B681B68C5
:102D3C00FA689A603B681B68B3F5005F3ED0B3F548
:102D4C00005F00F28780B3F5805F00F08580B3F5FB
:102D5C00805F7FD8702B1AD0702B7BD8602B50D013
:102D6C00602B77D8502B3CD0502B73D8402B58D09D
:102D7C00402B6FD8302B64D0302B6BD8202B60D0ED
:102D8C00202B67D8002B5CD0102B5AD062E07B68CC
:102D9C0018683B6899683B685A683B68DB6800F0C8
:102DAC005CF97B681B689B68FB60FB6843F07703EE
:102DBC00FB607B681B68FA689A604EE07B68186859
:102DCC003B6899683B685A683B68DB6800F045F9DA
:102DDC007B681B689A687B681B6842F480429A6027
:102DEC003BE07B6818683B6859683B68DB681A46AF
:102DFC0000F0BCF87B681B685021184600F013F9F2
:102E0C002BE07B6818683B6859683B68DB681A469E
:102E1C0000F0DAF87B681B686021184600F003F9B3
:102E2C001BE07B6818683B6859683B68DB681A468E
:102E3C0000F09CF87B681B684021184600F0F3F802
:102E4C000BE07B681A683B681B681946104600F05B
:102E5C00EAF802E000BF00E000BF7B68012283F8C3
:102E6C003D207B68002283F83C2000231846103755
:102E7C00BD4680BD80B483B000AF786000BF0C3716
:102E8C00BD4680BC704780B483B000AF786000BF93
:102E9C000C37BD4680BC704780B483B000AF7860FF
:102EAC0000BF0C37BD4680BC704780B483B000AF08
:102EBC00786000BF0C37BD4680BC704780B485B0CD
:102ECC0000AF786039607B681B68FB607B68254AC3
:102EDC00934207D07B68B3F1804F03D07B68224AC2
:102EEC00934208D1FB6823F07003FB603B685B687E
:102EFC00FA681343FB607B681A4A934207D07B68DD
:102F0C00B3F1804F03D07B68174A934208D1FB681A
:102F1C0023F44073FB603B68DB68FA681343FB6087
:102F2C00FB6823F080023B685B691343FB607B68A2
:102F3C00FA681A603B689A687B68DA623B681A68C0
:102F4C007B689A627B68074A934203D13B681A6993
:102F5C007B681A637B6801225A6100BF1437BD4637
:102F6C0080BC7047002C01400004004080B487B046
:102F7C0000AFF860B9607A60FB681B6A7B61FB6824
:102F8C001B6A23F00102FB681A62FB689B693B61B8
:102F9C003B6923F0F0033B617B681B013A691343E7
:102FAC003B617B6923F00A037B617A69BB6813433D
:102FBC007B61FB683A699A61FB687A691A6200BFA7
:102FCC001C37BD4680BC704780B487B000AFF8603A
:102FDC00B9607A60FB681B6A23F01002FB681A6206
:102FEC00FB689B697B61FB681B6A3B617B6923F413
:102FFC0070437B617B681B037A6913437B613B697C
:10300C0023F0A0033B61BB681B013A6913433B618E
:10301C00FB687A699A61FB683A691A6200BF1C37CF
:10302C00BD4680BC704780B485B000AF7860396015
:10303C007B689B68FB60FB6823F07003FB603A685D
:10304C00FB68134343F00703FB607B68FA689A60E4
:10305C0000BF1437BD4680BC704780B487B000AF4A
:10306C00F860B9607A603B60FB689B687B617B6948
:10307C0023F47F437B613B681A027B681A43BB686D
:10308C0013437A6913437B61FB687A699A6000BFCA
:10309C001C37BD4680BC704780B485B000AF7860EB
:1030AC0039607B6893F83C30012B01D1022341E05D
:1030BC007B68012283F83C207B68022283F83D2048
:1030CC007B681B685B68FB607B681B689B68BB60EC
:1030DC00FB6823F07003FB603B681B68FA681343C2
:1030EC00FB607B681B68FA685A607B681B68144A33
:1030FC00934209D07B681B68B3F1804F04D07B6886
:10310C001B68104A93420CD1BB6823F08003BB6050
:10311C003B685B68BA681343BB607B681B68BA6822
:10312C009A607B68012283F83D207B68002283F83B
:10313C003C20002318461437BD4680BC704700BFA6
:10314C00002C01400004004080B483B000AF7860D4
:10315C0000BF0C37BD4680BC704780B483B000AF55
:10316C00786000BF0C37BD4680BC704770B5002638
:10317C000C4D0D4C641BA410A64209D100F022F892
:10318C0000260A4D0A4C641BA410A64205D170BD42
:10319C0055F8043B98470136EEE755F8043B984741
:1031AC000136F2E70832000808320008083200083D
:1031BC000C32000803460244934200D1704703F8D6
:1031CC00011BF9E7F8B500BFF8BC08BC9E46704778
:0C31DC00F8B500BFF8BC08BC9E46704768
:1031E80002030405060708090A0B0C0D0E0F101040
:1031F800000000000000000001020304060708099F
:043208003101000888
:04320C000D010008A8
:1032100001000000010000000100000001000000AA
:10322000010000000100000001000000010000009A
:10323000010000000100000001000000010000008A
:103240002C0100000024F400100000000100000028
:0400000508001B6173
:00000001FF
