:020000040800F2
:1000000000280020311A0008C1190008C71900088B
:10001000CD190008D3190008D91900080000000004
:10002000000000000000000000000000DF190008D0
:10003000EB19000800000000F7190008031A000877
:10004000791A0008791A0008791A0008791A000844
:10005000791A0008791A0008791A0008791A000834
:10006000791A0008791A0008791A0008791A000824
:10007000791A0008791A0008791A0008791A000814
:10008000791A0008791A0008791A0008791A000804
:10009000791A0008791A0008791A0008791A0008F4
:1000A000791A0008791A0008791A0008791A0008E4
:1000B000111A0008791A000800000000791A0008D7
:1000C000791A00080000000000000000791A0008FA
:1000D00000000000791A0008791A000800000000EA
:1000E000791A0008791A0008791A0008000000003F
:1000F0000000000000000000000000000000000000
:0C01000000000000000000005FF808F1A3
:10010C0010B5054C237833B9044B13B10448AFF345
:10011C0000800123237010BD40000020000000006F
:10012C00A030000808B5034B1BB103490348AFF3DB
:10013C00008008BD0000000044000020A030000832
:10014C0080B500AF1E4B1B68472B20D0472B34DCEF
:10015C00452B02D0462B07D02FE0194B46221A60B4
:10016C00642001F07BFB28E0164B1B68012B21D18E
:10017C00144B00221A6000222021134801F079FF51
:10018C000F4B47221A60642001F068FB12E00D4B04
:10019C001B68012B10D10B4B00221A60012220216D
:1001AC00094801F066FF064B46221A60642001F0F4
:1001BC0055FB01E000BF00E000BF00BF80BD00BFE9
:1001CC00740000208C0000200008014080B400AFB7
:1001DC00034B01221A6000BFBD4680BC704700BFB4
:1001EC005C00002080B400AF034B01221A6000BFFA
:1001FC00BD4680BC704700BF6000002080B400AFDB
:10020C00034B01221A6000BFBD4680BC704700BF83
:10021C006400002080B500AF1F4B1B681F4A1360A1
:10022C001F4B1B681C4A13604FF400511D4801F012
:10023C0009FF03461A461A4B1A60174B1A68184BDB
:10024C001B689A4226D1144B1A68144B1B689A42AD
:10025C0020D1124B1A68144B1B689A420ED00F4BCC
:10026C001B68114A1360104B1B68002B12D10F4BEB
:10027C004FF496721A60FFF7A9FF0BE00B4B1B684B
:10028C00013B0A4A1360094B1B68002B02D1074B38
:10029C0064221A6000BF80BD04000020080000200A
:1002AC0000000020001001400C0000203000002055
:1002BC0080B500AF234B1B68234A1360234B1B688C
:1002CC00204A13604FF48041214801F0BBFE0346E5
:1002DC001A461E4B1A601B4B1A681C4B1B689A4221
:1002EC002DD1184B1A68184B1B689A4227D1164B04
:1002FC001A68184B1B689A420ED0134B1B68154A90
:10030C001360144B1B68002B19D1134B4FF49672CE
:10031C001A60FFF767FF12E00F4B1B68013B0E4A98
:10032C0013600D4B1B68002B09D10A4B1B68002B6B
:10033C0005D10A4B01221A60074B64221A6000BFD8
:10034C0080BD00BF14000020180000201000002009
:10035C00001001401C00002030000020680000202C
:10036C0080B500AF234B1B68234A1360234B1B68DB
:10037C00204A13604FF40041214801F063FE03460C
:10038C001A461E4B1A601B4B1A681C4B1B689A4270
:10039C002DD1184B1A68184B1B689A4227D1164B53
:1003AC001A68184B1B689A420ED0134B1B68154ADF
:1003BC001360144B1B68002B19D1134B4FF496721E
:1003CC001A60FFF71BFF12E00F4B1B68013B0E4A34
:1003DC0013600D4B1B68002B09D10A4B1B68002BBB
:1003EC0005D10A4B01221A60074B64221A6000BF28
:1003FC0080BD00BF24000020280000202000002029
:10040C00001001402C000020300000206C00002067
:10041C0080B582B000AF78607B68092B00F28081D8
:10042C0001A252F823F000BF5D040008A5040008E7
:10043C00ED040008350500087D050008C505000819
:10044C000D060008550600089D060008E506000884
:10045C0000220221B54801F00CFE00220421B34811
:10046C0001F007FE00220821B04801F002FE002234
:10047C001021AE4801F0FDFD00222021AB4801F017
:10048C00F8FD00224021A94801F0F3FD0122802152
:10049C00A64801F0EEFD44E101220221A34801F03F
:1004AC00E8FD00220421A14801F0E3FD002208210F
:1004BC009E4801F0DEFD012210219C4801F0D9FD7F
:1004CC0001222021994801F0D4FD012240219748B6
:1004DC0001F0CFFD01228021944801F0CAFD20E1FA
:1004EC0000220221914801F0C4FD002204218F4812
:1004FC0001F0BFFD012208218C4801F0BAFD002259
:10050C0010218A4801F0B5FD00222021874801F016
:10051C00B0FD01224021854801F0ABFD0022802175
:10052C00824801F0A6FDFCE0002202217F4801F088
:10053C00A0FD002204217D4801F09BFD0022082132
:10054C007A4801F096FD00221021784801F091FDC7
:10055C0001222021754801F08CFD012240217348B5
:10056C0001F087FD00228021704801F082FDD8E067
:10057C00012202216D4801F07CFD002204216B4810
:10058C0001F077FD00220821684801F072FD01227C
:10059C001021664801F06DFD01222021634801F015
:1005AC0068FD00224021614801F063FD002280219A
:1005BC005E4801F05EFDB4E0002202215B4801F0D0
:1005CC0058FD01220421594801F053FD0022082155
:1005DC00564801F04EFD00221021544801F049FD0F
:1005EC0001222021514801F044FD002240214F48B6
:1005FC0001F03FFD002280214C4801F03AFD90E0D3
:10060C0000220221494801F034FD0122042147480F
:10061C0001F02FFD00220821444801F02AFD0022A0
:10062C001021424801F025FD002220213F4801F015
:10063C0020FD002240213D4801F01BFD00228021BD
:10064C003A4801F016FD6CE000220221374801F017
:10065C0010FD00220421354801F00BFD0022082179
:10066C00324801F006FD01221021304801F001FD55
:10067C00012220212D4801F0FCFC012240212B48B5
:10068C0001F0F7FC01228021284801F0F2FC48E03F
:10069C0000220221254801F0ECFC00220421234811
:1006AC0001F0E7FC00220821204801F0E2FC0022C6
:1006BC0010211E4801F0DDFC002220211B4801F016
:1006CC00D8FC00224021194801F0D3FC00228021E3
:1006DC00164801F0CEFC24E000220221134801F060
:1006EC00C8FC00220421114801F0C3FC002208219F
:1006FC000E4801F0BEFC012210210C4801F0B9FC9F
:10070C0001222021094801F0B4FC002240210748B5
:10071C0001F0AFFC00228021044801F0AAFC00E0AB
:10072C0000BF00BF0837BD4680BD00BF000C0140B4
:10073C0080B500AFA24B1B68013B3A2B00F26982DB
:10074C0001A252F823F000BF410800081F0C00085A
:10075C001F0C00081F0C00081F0C00081F0C0008C1
:10076C001F0C00081F0C00081F0C00081F0C0008B1
:10077C001F0C00081F0C00081F0C00081F0C0008A1
:10078C001F0C00081F0C00081F0C00081F0C000891
:10079C001F0C00081F0C00081F0C00081F0C000881
:1007AC001F0C00081F0C00081F0C00081F0C000871
:1007BC001F0C00081F0C00081F0C00081F0C000861
:1007CC001F0C00081F0C00081F0C00081F0C000851
:1007DC001F0C00081F0C00081F0C00081F0C000841
:1007EC001F0C00081F0C00081F0C00081F0C000831
:1007FC001F0C00081F0C00081F0C00081F0C000821
:10080C001F0C00081F0C00081F0C00085B080008D8
:10081C00AF0800080F0900086B090008E50900087B
:10082C00450A0008A50A0008050B0008630B000820
:10083C00C10B00080020FFF7EBFD614B0C221A6086
:10084C00C82000F0F7FF5F4B46221A60F4E15E4BC4
:10085C001B68012B05D15C4B00221A60584B0122FE
:10086C001A605A4B1B68012B05D1584B00221A6099
:10087C000020FFF7CDFD564B1B68012B05D1544BC7
:10088C0000221A604E4B0D221A60524B1B68012B32
:10089C0040F0C1814F4B00221A60494B0C221A6068
:1008AC00B9E1494B1B68012B05D1474B00221A605B
:1008BC00434B01221A60454B1B68012B0BD1434B58
:1008CC0000221A600120FFF7A3FD3D4B32221A6073
:1008DC00642000F0AFFF3E4B1B68012B05D13C4B55
:1008EC0000221A60364B0E221A603A4B1B68012B01
:1008FC0040F09381374B00221A60314B0D221A6065
:10090C008BE1314B1B68012B05D12F4B00221A6058
:10091C002B4B01221A602D4B1B68012B0BD12B4B3F
:10092C0000221A600220FFF773FD254B33221A6058
:10093C00642000F07FFF264B1B68012B05D1244B54
:10094C0000221A601E4B0F221A60224B1B68012BCF
:10095C0005D1204B00221A60194B0E221A601A4B3B
:10096C001B68012B05D1184B00221A60144B012275
:10097C001A60164B1B68012B0BD1144B00221A600A
:10098C000320FFF745FD0E4B34221A60642000F063
:10099C0051FF0F4B1B68012B05D10D4B00221A6028
:1009AC00074B10221A600B4B1B68012B40F0378150
:1009BC00084B00221A60024B0F221A602FE100BF75
:1009CC0070000020740000205C00002088000020D3
:1009DC006000002064000020984B1B68012B05D19F
:1009EC00964B00221A60964B01221A60954B1B689D
:1009FC00012B0BD1934B00221A600420FFF708FD4A
:100A0C008F4B35221A60642000F014FF8E4B1B684C
:100A1C00012B05D18C4B00221A60894B11221A60D4
:100A2C008A4B1B68012B40F0FC80884B00221A601B
:100A3C00834B10221A60F4E0804B1B68012B05D10C
:100A4C007E4B00221A607E4B01221A607D4B1B6884
:100A5C00012B0BD17B4B00221A600520FFF7D8FC31
:100A6C00774B36221A60642000F0E4FE764B1B684C
:100A7C00012B05D1744B00221A60714B11221A60A4
:100A8C00724B1B68012B40F0CE80704B00221A6019
:100A9C006B4B11221A60C6E0684B1B68012B05D109
:100AAC00664B00221A60664B01221A60664B1B686B
:100ABC00012B05D1644B00221A60614B12221A6083
:100ACC00604B1B68012B0BD15E4B00221A60062079
:100ADC00FFF79EFC5A4B37221A60642000F0AAFEE6
:100AEC005A4B1B68012B40F0A080584B00221A6017
:100AFC00534B12221A6098E0504B1B68012B05D106
:100B0C004E4B00221A604E4B01221A604D4B1B6853
:100B1C00012B0BD14B4B00221A600720FFF778FCFE
:100B2C00474B38221A60642000F084FE464B1B6849
:100B3C00012B05D1444B00221A60414B13221A6041
:100B4C00424B1B68012B72D1404B00221A603C4B6C
:100B5C0013221A606BE0394B1B68012B05D1374B04
:100B6C0000221A60364B01221A60374B1B68012B8E
:100B7C0005D1354B00221A60314B13221A60334BCE
:100B8C001B68012B05D1314B00221A602C4B14220F
:100B9C001A602C4B1B68012B4BD12A4B00221A607C
:100BAC000820FFF735FC264B39221A60642000F030
:100BBC0041FE3EE0214B1B68012B05D11F4B00224F
:100BCC001A601F4B01221A601F4B1B68012B05D1A9
:100BDC001D4B00221A601A4B15221A601B4B1B6806
:100BEC00012B05D1194B00221A60154B15221A60E6
:100BFC00144B1B68012B1ED1124B00221A600920CA
:100C0C00FFF706FC0E4B3A221A60642000F012FE2D
:100C1C0011E000BF10E000BF0EE000BF0CE000BF11
:100C2C000AE000BF08E000BF06E000BF04E000BF20
:100C3C0002E000BF00E000BF00BF80BD5C000020F0
:100C4C00700000208800002060000020640000205C
:100C5C0080B500AF984B1B681E3B092B00F2158129
:100C6C0001A252F823F000BF9D0C0008D10C000823
:100C7C00050D0008390D00086D0D0008A70D0008C2
:100C8C00D70D0008070E0008370E0008670E000885
:100C9C000020FFF7BDFB894B1B68012B40F0F78050
:100CAC00864B00221A60864B1B68012B40F0EF80AC
:100CBC00834B00221A60804B1F221A60642000F0C4
:100CCC00A5FDE4E00120FFF7A3FB7C4B1B68012B87
:100CDC0040F0DF80794B00221A60794B1B68012BA6
:100CEC0040F0D780764B00221A60734B20221A609A
:100CFC00642000F08BFDCCE00220FFF789FB6F4BEA
:100D0C001B68012B40F0C7806C4B00221A606C4BA7
:100D1C001B68012B40F0BF80694B00221A60664BA8
:100D2C0021221A60642000F071FDB4E00320FFF76B
:100D3C006FFB624B1B68012B40F0AF805F4B0022B6
:100D4C001A605F4B1B68012B40F0A7805C4B0022A4
:100D5C001A60594B22221A60642000F057FD9CE067
:100D6C000420FFF755FB554B1B68012B40F0978077
:100D7C00524B00221A60514B00221A60504B1B68D8
:100D8C00012B40F08C804E4B00221A604A4B2322E0
:100D9C001A60642000F03AFD81E00520FFF738FB73
:100DAC00464B1B68012B7CD1444B00221A60444BF0
:100DBC001B68012B75D1424B00221A603E4B24223A
:100DCC001A60642000F022FD6BE00620FFF720FB88
:100DDC003A4B1B68012B66D1384B00221A60384BFA
:100DEC001B68012B5FD1364B00221A60324B252237
:100DFC001A60642000F00AFD55E00720FFF708FB9D
:100E0C002E4B1B68012B50D12C4B00221A602C4B03
:100E1C001B68012B49D12A4B00221A60264B262233
:100E2C001A60642000F0F2FC3FE00820FFF7F0FAB3
:100E3C00224B1B68012B3AD1204B00221A60204B0D
:100E4C001B68012B33D11E4B00221A601A4B272230
:100E5C001A60642000F0DAFC29E00920FFF7D8FAC8
:100E6C00164B1B68012B24D1144B00221A60144B17
:100E7C001B68012B1DD1124B00221A600E4B1E2237
:100E8C001A60642000F0C2FC13E000BF12E000BF47
:100E9C0010E000BF0EE000BF0CE000BF0AE000BF96
:100EAC0008E000BF06E000BF04E000BF02E000BFA6
:100EBC0000E000BF00BF80BD700000208400002057
:100ECC006800002080B500AFA94B1B680C3B092BB8
:100EDC0000F2488301A252F823F000BF110F000862
:100EEC009D0F00083D100008DD1000089911000846
:100EFC0039120008D91200087913000835140008BB
:100F0C00D31400080020FFF783FA9A4B1B68012BBF
:100F1C0008D1984B00221A60954B0D221A60C820FC
:100F2C0000F088FC944B1B68012B08D1924B0022DB
:100F3C001A608F4B1E221A60642000F067FC8F4BE6
:100F4C001B68012B08D18D4B00221A60884B15228F
:100F5C001A60C82000F06EFC894B1B68012B08D16D
:100F6C00874B00221A60824B32221A60642000F0F8
:100F7C0061FC844B1B68012B40F0F682814B0022F4
:100F8C001A607B4B1E221A60642000F03FFCEBE2DF
:100F9C000120FFF73DFA7C4B1B68012B05D17A4BE6
:100FAC0000221A60724B01221A60724B1B68012BD3
:100FBC0008D1704B00221A606D4B0E221A60C820AB
:100FCC0000F038FC6C4B1B68012B08D16A4B0022DB
:100FDC001A60674B1F221A60642000F017FC674BE5
:100FEC001B68012B08D1654B00221A60604B0C2248
:100FFC001A60C82000F01EFC614B1B68012B08D145
:10100C005F4B00221A605A4B33221A60642000F0A6
:10101C0011FC5C4B1B68012B40F0A882594B002241
:10102C001A60534B1F221A60642000F0EFFB9DE204
:10103C000220FFF7EDF9544B1B68012B05D1524BE5
:10104C0000221A604A4B01221A604A4B1B68012B82
:10105C0008D1484B00221A60454B0F221A60C82059
:10106C0000F0E8FB444B1B68012B08D1424B0022DB
:10107C001A603F4B20221A60642000F0C7FB3F4BE4
:10108C001B68012B08D13D4B00221A60384B0D22F6
:10109C001A60C82000F0CEFB394B1B68012B08D11D
:1010AC00374B00221A60324B34221A60642000F055
:1010BC00C1FB344B1B68012B40F05A82314B002290
:1010CC001A602B4B20221A60642000F09FFB4FE229
:1010DC000320FFF79DF92C4B1B68012B05D12A4BE4
:1010EC0000221A60224B01221A60224B1B68012B32
:1010FC0008D1204B00221A601D4B10221A60C82008
:10110C0000F098FB1C4B1B68012B08D11A4B0022DA
:10111C001A60174B21221A60642000F077FB174BE2
:10112C001B68012B08D1154B00221A60104B0E22A4
:10113C001A60C82000F07EFB114B1B68012B08D1F4
:10114C000F4B00221A600A4B35221A60642000F003
:10115C0071FB0C4B1B68012B40F00C82094B0022DD
:10116C001A60034B21221A60642000F04FFB01E24D
:10117C007000002060000020680000206400002047
:10118C00880000206C0000205C0000200420FFF789
:10119C003FF99E4B1B68012B05D19C4B00221A601A
:1011AC009B4B01221A609B4B1B68012B08D1994B5E
:1011BC0000221A60964B11221A60C82000F03AFBEC
:1011CC00954B1B68012B08D1934B00221A60904B56
:1011DC0022221A60642000F019FB904B1B68012B33
:1011EC0008D18E4B00221A60894B0F221A60C8203E
:1011FC0000F020FB8A4B1B68012B08D1884B002286
:10120C001A60834B36221A60642000F013FB854B66
:10121C001B68012B40F0B081824B00221A607C4B82
:10122C0022221A60642000F0F1FAA5E1774B1B68CA
:10123C00012B05D1754B00221A60754B01221A60E7
:10124C000520FFF7E5F8734B1B68012B08D1714B98
:10125C0000221A606E4B12221A60C82000F0EAFAC3
:10126C006D4B1B68012B08D16B4B00221A60684B2D
:10127C0023221A60642000F0C9FA684B1B68012B0A
:10128C0008D1664B00221A60614B10221A60C820EC
:10129C0000F0D0FA624B1B68012B08D1604B002286
:1012AC001A605B4B37221A60642000F0C3FA5D4B66
:1012BC001B68012B40F062815A4B00221A60544B80
:1012CC0023221A60642000F0A1FA57E10620FFF7F0
:1012DC009FF84E4B1B68012B05D14C4B00221A601A
:1012EC004B4B01221A604B4B1B68012B08D1494B0D
:1012FC0000221A60464B13221A60C82000F09AFA9A
:10130C00454B1B68012B08D1434B00221A60404B04
:10131C0024221A60642000F079FA404B1B68012BE0
:10132C0008D13E4B00221A60394B11221A60C8209A
:10133C0000F080FA3A4B1B68012B08D1384B002285
:10134C001A60334B38221A60642000F073FA354B64
:10135C001B68012B40F01481324B00221A602C4B7D
:10136C0024221A60642000F051FA09E10720FFF7EB
:10137C004FF8264B1B68012B05D1244B00221A6019
:10138C00234B01221A60234B1B68012B08D1214BE4
:10139C0000221A601E4B14221A60C82000F04AFA70
:1013AC001D4B1B68012B08D11B4B00221A60184BDC
:1013BC0025221A60642000F029FA184B1B68012BB7
:1013CC0008D1164B00221A60114B12221A60C82049
:1013DC0000F030FA124B1B68012B08D1104B002285
:1013EC001A600B4B39221A60642000F023FA0D4B63
:1013FC001B68012B40F0C6800A4B00221A60044B7C
:10140C0025221A60642000F001FABBE05C00002089
:10141C0070000020600000206800002064000020A4
:10142C00880000206C0000205A4B1B68012B05D152
:10143C00584B00221A60584B01221A600820FEF704
:10144C00E7FF564B1B68012B08D1544B00221A6046
:10145C00514B15221A60C82000F0ECF9504B1B6858
:10146C00012B08D14E4B00221A604B4B26221A60DE
:10147C00642000F0CBF94B4B1B68012B08D1494B76
:10148C0000221A60444B13221A60C82000F0D2F9D3
:10149C00454B1B68012B08D1434B00221A603E4B75
:1014AC003A221A60642000F0C5F9404B1B68012BEE
:1014BC006AD13E4B00221A60374B26221A606420F8
:1014CC0000F0A4F960E00920FEF7A2FF314B1B6885
:1014DC00012B08D12F4B00221A602F4B01221A60CE
:1014EC00C82000F0A7F92D4B1B68012B05D12B4B05
:1014FC0000221A60284B01221A60294B1B68012B11
:10150C0008D1274B00221A60234B27221A60642033
:10151C0000F07CF9244B1B68012B08D1224B0022D4
:10152C001A601D4B3B221A60642000F083F91D4B9E
:10153C001B68012B08D11B4B00221A60164B14227E
:10154C001A60C82000F076F9184B1B68012B1DD1CE
:10155C00164B00221A60104B27221A60642000F0F0
:10156C0055F913E000BF12E000BF10E000BF0EE021
:10157C0000BF0CE000BF0AE000BF08E000BF06E0BF
:10158C0000BF04E000BF02E000BF00E000BF00BFEE
:10159C0080BD00BF5C0000207000002060000020B7
:1015AC006800002064000020880000206C000020EF
:1015BC0080B500AF00F05CFA00F01CF800F0A2F867
:1015CC0000F054F8084801F0A5F9084B01221A6004
:1015DC00074B45221A60FFF7ABF8FFF773FCFFF7D8
:1015EC0037FBFEF7ADFDF6E7900000207000002001
:1015FC007400002080B590B000AF07F118032822CA
:10160C000021184601F03EFD3B1D00221A605A6075
:10161C009A60DA601A610223BB610123BB6210235A
:10162C00FB6200237B6307F11803184600F03AFDB8
:10163C000346002B01D000F0E3F80F237B6000235E
:10164C00BB600023FB6000233B6100237B613B1DDF
:10165C000021184600F0A6FF0346002B01D000F035
:10166C00CFF800BF4037BD4680BD000080B586B0C6
:10167C0000AF07F1080300221A605A609A60DA6022
:10168C003B4600221A605A601D4B4FF080421A6094
:10169C001B4B41F63F725A60194B00229A60184B53
:1016AC000922DA60164B00221A61154B00229A614E
:1016BC00134801F0DFF80346002B01D000F0A0F82E
:1016CC004FF48053BB6007F1080319460C4801F036
:1016DC0075FA0346002B01D000F092F800233B6012
:1016EC0000237B603B461946054801F03DFC034650
:1016FC00002B01D000F084F800BF1837BD4680BD28
:10170C009000002080B588B000AF07F110030022D4
:10171C001A605A609A60DA602D4B9B692C4A43F030
:10172C00100393612A4B9B6903F01003FB60FB6869
:10173C00274B9B69264A43F004039361244B9B6916
:10174C0003F00403BB60BB68214B9B69204A43F048
:10175C00080393611E4B9B6903F008037B607B6855
:10176C00002270211B4800F084FC0022FE211A4844
:10177C0000F07FFC4FF460433B6100237B6101234D
:10178C00BB6107F110031946144800F0E1FA70230D
:10179C003B6101237B610023BB610223FB6107F1E9
:1017AC00100319460B4800F0D3FAFE233B610123CA
:1017BC007B610023BB610223FB6107F11003194617
:1017CC00054800F0C5FA00BF2037BD4680BD00BFFC
:1017DC000010024000080140000C014000100140C4
:1017EC0080B582B000AF786000F04CF8FEF712FDC7
:1017FC00FEF75EFDFEF7B4FD00BF0837BD4680BDA9
:10180C0080B400AF72B600BFFEE7000080B483B0B6
:10181C0000AF7860054A7B681360054B00221A60A4
:10182C0000BF0C37BD4680BC704700BF780000205D
:10183C008400002080B483B000AF7860054A7B68D8
:10184C001360054B00221A6000BF0C37BD4680BCEC
:10185C00704700BF7C0000208800002080B483B05B
:10186C0000AF7860054A7B681360054B00221A6054
:10187C0000BF0C37BD4680BC704700BF8000002005
:10188C008C00002080B400AF194B1B68002B04D0D7
:10189C00174B1B68013B164A1360154B1B68002B3A
:1018AC0002DC144B01221A60134B1B68002B04D072
:1018BC00114B1B68013B104A13600F4B1B68002B2C
:1018CC0002DC0E4B01221A600D4B1B68002B04D05E
:1018DC000B4B1B68013B0A4A1360094B1B68002B1E
:1018EC0002DC084B01221A6000BFBD4680BC704769
:1018FC0078000020840000207C000020880000205C
:10190C00800000208C00002080B485B000AF154B07
:10191C009B69144A43F001039361124B9B6903F0DA
:10192C000103BB60BB680F4BDB690E4A43F080536D
:10193C00D3610C4BDB6903F080537B607B680A4BF3
:10194C005B68FB60FB6823F0E063FB60FB6843F0C3
:10195C008063FB60044AFB68536000BF1437BD46CC
:10196C0080BC7047001002400000014080B584B07C
:10197C0000AF78607B681B68B3F1804F13D10C4BC0
:10198C00DB690B4A43F00103D361094BDB6903F0BC
:10199C000103FB60FB68002200211C2000F0A1F970
:1019AC001C2000F0BAF900BF1037BD4680BD00BF47
:1019BC000010024080B400AFFEE780B400AFFEE739
:1019CC0080B400AFFEE780B400AFFEE780B400AF98
:1019DC00FEE780B400AF00BFBD4680BC704780B44A
:1019EC0000AF00BFBD4680BC704780B400AF00BFE5
:1019FC00BD4680BC704780B500AF00F07FF800BFDB
:101A0C0080BD000080B500AF024800F0CFFF00BFE2
:101A1C0080BD00BF9000002080B400AF00BFBD4669
:101A2C0080BC70470C480D490D4A002302E0D45885
:101A3C00C4500433C4188C42F9D30A4A0A4C00230C
:101A4C0001E013600432A242FBD3FFF7E5FF01F083
:101A5C00F5FAFFF7ADFD70470000002040000020B4
:101A6C00E030000840000020DC000020FEE7000011
:101A7C0080B500AF084B1B68074A43F01003136096
:101A8C00032000F023F90F2000F008F8FFF73CFFCB
:101A9C000023184680BD00BF0020024080B582B0F4
:101AAC0000AF7860124B1A68124B1B7819464FF432
:101ABC007A73B3FBF1F3B2FBF3F3184600F03BF986
:101ACC000346002B01D001230EE07B680F2B0AD8B4
:101ADC00002279684FF0FF3000F003F9064A7B686A
:101AEC001360002300E0012318460837BD4680BD73
:101AFC00340000203C0000203800002080B400AFEF
:101B0C00054B1B781A46054B1B681344034A13609C
:101B1C0000BFBD4680BC70473C000020D8000020B0
:101B2C0080B400AF024B1B681846BD4680BC7047A2
:101B3C00D800002080B485B000AF78607B6803F0DB
:101B4C000703FB600C4BDB68BB60BA684FF6FF0306
:101B5C001340BB60FB681A02BB68134343F0BF63BE
:101B6C0043F40033BB60044ABB68D36000BF143736
:101B7C00BD4680BC704700BF00ED00E080B400AFF4
:101B8C00044BDB681B0A03F007031846BD4680BCF8
:101B9C00704700BF00ED00E080B483B000AF034697
:101BAC00FB7197F90730002B0BDBFB7903F01F025D
:101BBC00064997F907305B09012000FA02F241F857
:101BCC00232000BF0C37BD4680BC704700E100E00D
:101BDC0080B483B000AF03463960FB7197F90730CE
:101BEC00002B0ADB3B68DAB20C4997F9073012017B
:101BFC00D2B20B4483F800230AE03B68DAB20849FE
:101C0C00FB7903F00F03043B1201D2B20B441A769A
:101C1C0000BF0C37BD4680BC704700BF00E100E040
:101C2C0000ED00E080B489B000AFF860B9607A6074
:101C3C00FB6803F00703FB61FB69C3F10703042B8B
:101C4C0028BF0423BB61FB690433062B02D9FB6953
:101C5C00033B00E000237B614FF0FF32BB6902FACB
:101C6C0003F3DA43BB681A407B699A404FF0FF31AB
:101C7C007B6901FA03F3D9437B680B401343184685
:101C8C002437BD4680BC704780B582B000AF786009
:101C9C007B68013BB3F1807F01D301230FE00A4A3B
:101CAC007B68013B53600F214FF0FF30FFF790FF33
:101CBC00054B00229A60044B07221A600023184639
:101CCC000837BD4680BD00BF10E000E080B582B093
:101CDC0000AF78607868FFF72DFF00BF0837BD466E
:101CEC0080BD80B586B000AF0346B9607A60FB73E7
:101CFC0000237B61FFF742FF78617A68B9687869E5
:101D0C00FFF790FF024697F90F3011461846FFF780
:101D1C005FFF00BF1837BD4680BD80B582B000AFF5
:101D2C000346FB7197F907301846FFF735FF00BFE4
:101D3C000837BD4680BD80B582B000AF786078684A
:101D4C00FFF7A2FF034618460837BD4680BD0000CA
:101D5C0080B48BB000AF7860396000237B620023C5
:101D6C003B6248E101227B6A02FA03F3FB613B68A8
:101D7C001B68FA691340BB61BA69FB699A4240F06F
:101D8C0037813B685B68A34A93425ED0A14A934279
:101D9C0075D8A14A934258D09F4A93426FD89F4A14
:101DAC00934252D09D4A934269D89D4A93424CD05B
:101DBC009B4A934263D89B4A934246D0994A93429A
:101DCC005DD8122B2AD8122B59D801A252F823F025
:101DDC00571E0008311E0008431E0008851E00080F
:101DEC008B1E00088B1E00088B1E00088B1E000823
:101DFC008B1E00088B1E00088B1E00088B1E000813
:101E0C008B1E00088B1E00088B1E00088B1E000802
:101E1C008B1E0008391E00084D1E0008824A934292
:101E2C0013D02CE03B68DB683B6229E03B68DB6845
:101E3C0004333B6224E03B68DB6808333B621FE001
:101E4C003B68DB680C333B621AE03B689B68002BF9
:101E5C0002D104233B6213E03B689B68012B05D144
:101E6C0008233B627B68FA691A6109E008233B622C
:101E7C007B68FA695A6103E000233B6200E000BF13
:101E8C00BB69FF2B01D87B6801E07B6804337B6165
:101E9C00BB69FF2B02D87B6A9B0002E07B6A083B84
:101EAC009B003B617B691A680F213B6901FA03F3C4
:101EBC00DB431A40396A3B6901FA03F31A437B6925
:101ECC001A603B685B6803F08053002B00F0908035
:101EDC00564B9B69554A43F001039361534B9B69E5
:101EEC0003F00103BB60BB68514A7B6A9B08023359
:101EFC0052F82330FB607B6A03F003039B000F2234
:101F0C0002FA03F3DB43FA681340FB607B68494A2F
:101F1C0093420DD07B68484A934207D07B68474A6E
:101F2C00934201D1022304E0032302E0012300E0E9
:101F3C0000237A6A02F0030292009340FA6813437A
:101F4C00FB603B497B6A9B080233FA6841F823200B
:101F5C003B685B6803F48033002B06D0384B1A685F
:101F6C003749BB6913430B6006E0354B1A68BB69F4
:101F7C00DB43334913400B603B685B6803F400336D
:101F8C00002B06D02E4B5A682D49BB6913434B606E
:101F9C0006E02B4B5A68BB69DB43294913404B6065
:101FAC003B685B6803F48013002B06D0244B9A68C3
:101FBC002349BB6913438B6006E0214B9A68BB69CC
:101FCC00DB431F4913408B603B685B6803F40013D1
:101FDC00002B06D01A4BDA681949BB691343CB6046
:101FEC0006E0174BDA68BB69DB4315491340CB603D
:101FFC007B6A01337B623B681A687B6A22FA03F3C3
:10200C00002B7FF4AFAE00BF00BF2C37BD4680BCA9
:10201C00704700BF00003210000031100000221089
:10202C0000002110000012100000111000100240DE
:10203C000000014000080140000C0140001001406C
:10204C000004014080B485B000AF78600B467B8003
:10205C007B689A687B881340002B02D00123FB73AA
:10206C0001E00023FB73FB7B18461437BD4680BC94
:10207C00704780B483B000AF78600B467B8013460A
:10208C007B707B78002B03D07A887B681A6103E025
:10209C007B881A047B681A6100BF0C37BD4680BC74
:1020AC007047000080B586B000AF78607B68002B6D
:1020BC0001D101236CE27B681B6803F00103002B48
:1020CC0000F08780924B5B6803F00C03042B0CD060
:1020DC008F4B5B6803F00C03082B12D18C4B5B68A5
:1020EC0003F48033B3F5803F0BD1894B1B6803F4A9
:1020FC000033002B6CD07B685B68002B68D101230C
:10210C0046E27B685B68B3F5803F06D1804B1B6869
:10211C007F4A43F4803313602EE07B685B68002BAE
:10212C000CD17B4B1B687A4A23F480331360784BB9
:10213C001B68774A23F4802313601DE07B685B687F
:10214C00B3F5A02F0CD1724B1B68714A43F480235A
:10215C0013606F4B1B686E4A43F4803313600BE0C3
:10216C006B4B1B686A4A23F480331360684B1B6803
:10217C00674A23F4802313607B685B68002B13D0C1
:10218C00FFF7CEFC386108E0FFF7CAFC02463B695A
:10219C00D31A642B01D90323FAE15D4B1B6803F4BA
:1021AC000033002BF0D014E0FFF7BAFC386108E0E4
:1021BC00FFF7B6FC02463B69D31A642B01D9032303
:1021CC00E6E1534B1B6803F40033002BF0D100E025
:1021DC0000BF7B681B6803F00203002B63D04C4BE1
:1021EC005B6803F00C03002B0BD0494B5B6803F0CE
:1021FC000C03082B1CD1464B5B6803F48033002B7B
:10220C0016D1434B1B6803F00203002B05D07B68EF
:10221C001B69012B01D00123BAE13D4B1B6823F054
:10222C00F8027B685B69DB00394913430B603AE0C9
:10223C007B681B69002B20D0364B01221A60FFF7FC
:10224C006FFC386108E0FFF76BFC02463B69D31A60
:10225C00022B01D903239BE12D4B1B6803F00203D6
:10226C00002BF0D02A4B1B6823F0F8027B685B69CB
:10227C00DB00274913430B6015E0264B00221A6044
:10228C00FFF74EFC386108E0FFF74AFC02463B6959
:10229C00D31A022B01D903237AE11D4B1B6803F0DF
:1022AC000203002BF0D17B681B6803F00803002BA2
:1022BC003AD07B689B69002B19D0174B01221A600E
:1022CC00FFF72EFC386108E0FFF72AFC02463B6959
:1022DC00D31A022B01D903235AE10D4B5B6A03F08D
:1022EC000203002BF0D0012000F0A6FA1CE00A4BF0
:1022FC0000221A60FFF714FC38610FE0FFF710FCA6
:10230C0002463B69D31A022B08D9032340E100BFD4
:10231C000010024000004242800442429E4B5B6A25
:10232C0003F00203002BE9D17B681B6803F0040364
:10233C00002B00F0A6800023FB75974BDB6903F0A4
:10234C008053002B0DD1944BDB69934A43F080539F
:10235C00D361914BDB6903F08053BB60BB680123F5
:10236C00FB758E4B1B6803F48073002B18D18B4BC1
:10237C001B688A4A43F480731360FFF7D1FB386102
:10238C0008E0FFF7CDFB02463B69D31A642B01D959
:10239C000323FDE0814B1B6803F48073002BF0D00A
:1023AC007B68DB68012B06D17B4B1B6A7A4A43F0B6
:1023BC00010313622DE07B68DB68002B0CD1764B9C
:1023CC001B6A754A23F001031362734B1B6A724A32
:1023DC0023F0040313621CE07B68DB68052B0CD133
:1023EC006D4B1B6A6C4A43F0040313626A4B1B6A05
:1023FC00694A43F0010313620BE0674B1B6A664AA0
:10240C0023F001031362644B1B6A634A23F0040339
:10241C0013627B68DB68002B15D0FFF781FB3861FA
:10242C000AE0FFF77DFB02463B69D31A41F2883282
:10243C00934201D90323ABE0574B1B6A03F0020311
:10244C00002BEED014E0FFF76BFB38610AE0FFF7CE
:10245C0067FB02463B69D31A41F28832934201D999
:10246C00032395E04C4B1B6A03F00203002BEED1C7
:10247C00FB7D012B05D1484BDB69474A23F0805388
:10248C00D3617B68DB69002B00F08180424B5B6879
:10249C0003F00C03082B61D07B68DB69022B46D15F
:1024AC003F4B00221A60FFF73BFB386108E0FFF757
:1024BC0037FB02463B69D31A022B01D9032367E091
:1024CC00354B1B6803F00073002BF0D17B681B6A43
:1024DC00B3F5803F08D1304B5B6823F400327B6846
:1024EC009B682D4913434B602B4B5B6823F4741290
:1024FC007B68196A7B685B6A0B43274913434B6003
:10250C00274B01221A60FFF70BFB386108E0FFF73D
:10251C0007FB02463B69D31A022B01D9032337E090
:10252C001D4B1B6803F00073002BF0D02FE01C4BED
:10253C0000221A60FFF7F4FA386108E0FFF7F0FAAE
:10254C0002463B69D31A022B01D9032320E0124B1C
:10255C001B6803F00073002BF0D118E07B68DB697B
:10256C00012B01D1012313E00B4B5B68FB60FB6873
:10257C0003F480327B681B6A9A4206D1FB6803F431
:10258C0070127B685B6A9A4201D0012300E0002341
:10259C0018461837BD4680BD001002400070004040
:1025AC006000424280B584B000AF786039607B68CF
:1025BC00002B01D10123D0E06A4B1B6803F0070309
:1025CC003A689A4210D9674B1B6823F00702654999
:1025DC003B6813430B60634B1B6803F007033A68BB
:1025EC009A4201D00123B8E07B681B6803F0020318
:1025FC00002B20D07B681B6803F00403002B05D054
:10260C00594B5B68584A43F4E06353607B681B6822
:10261C0003F00803002B05D0534B5B68524A43F47C
:10262C0060535360504B5B6823F0F0027B689B68EF
:10263C004D4913434B607B681B6803F00103002B6F
:10264C0040D07B685B68012B07D1474B1B6803F4B8
:10265C000033002B15D101237FE07B685B68022BD4
:10266C0007D1414B1B6803F00073002B09D10123E8
:10267C0073E03D4B1B6803F00203002B01D10123D7
:10268C006BE0394B5B6823F003027B685B6836496F
:10269C0013434B60FFF744FAF8600AE0FFF740FA87
:1026AC000246FB68D31A41F28832934201D90323C4
:1026BC0053E02D4B5B6803F00C027B685B689B005E
:1026CC009A42EBD1274B1B6803F007033A689A42F6
:1026DC0010D2244B1B6823F0070222493B6813439A
:1026EC000B60204B1B6803F007033A689A4201D039
:1026FC00012332E07B681B6803F00403002B08D035
:10270C00194B5B6823F4E0627B68DB681649134362
:10271C004B607B681B6803F00803002B09D0124B3D
:10272C005B6823F460527B681B69DB000E49134322
:10273C004B6000F021F802460B4B5B681B0903F061
:10274C000F030A49CB5C22FA03F3094A1360094BC5
:10275C001B681846FFF7A2F9002318461037BD4630
:10276C0080BD00BF0020024000100240C8300008AD
:10277C00340000203800002090B48AB000AF2A4BFF
:10278C003C1D0FCB84E80F0040F201233B8000235B
:10279C00FB610023BB6100237B6200237B61002370
:1027AC003B62224B5B68FB61FB6903F00C03042B5F
:1027BC0002D0082B03D02DE01D4B3B622DE0FB69B2
:1027CC009B0C03F00F0307F12802134413F8243C6D
:1027DC007B61FB6903F48033002B13D0134B5B68D4
:1027EC005B0C03F0010307F12802134413F8283C97
:1027FC00BB617B690E4A02FB03F2BB69B2FBF3F3CC
:10280C007B6204E07B690B4A02FB03F37B627B6A0D
:10281C003B6202E0064B3B6200BF3B6A184628371E
:10282C00BD4690BC704700BFB83000080010024095
:10283C0000127A0000093D0080B485B000AF7860CA
:10284C000A4B1B680A4AA2FB03235B0A7A6802FB49
:10285C0003F3FB6000BFFB685A1EFA60002BF9D132
:10286C0000BF00BF1437BD4680BC70473400002049
:10287C00D34D621080B582B000AF78607B68002BBE
:10288C0001D1012341E07B6893F83D30DBB2002B92
:10289C0006D17B68002283F83C207868FFF766F845
:1028AC007B68022283F83D207B681A687B680433BE
:1028BC001946104600F06AFA7B68012283F846201C
:1028CC007B68012283F83E207B68012283F83F203D
:1028DC007B68012283F840207B68012283F8412029
:1028EC007B68012283F842207B68012283F8432015
:1028FC007B68012283F844207B68012283F8452001
:10290C007B68012283F83D20002318460837BD461A
:10291C0080BD000080B485B000AF78607B6893F810
:10292C003D30DBB2012B01D0012335E07B68022264
:10293C0083F83D207B681B68DA687B681B6842F073
:10294C000102DA607B681B68164A934209D07B68E7
:10295C001B68B3F1804F04D07B681B68124A93420A
:10296C0011D17B681B689B6803F00703FB60FB6855
:10297C00062B10D07B681B681A687B681B6842F0BA
:10298C0001021A6007E07B681B681A687B681B6889
:10299C0042F001021A60002318461437BD4680BC71
:1029AC00704700BF002C01400004004080B582B08D
:1029BC0000AF78607B681B681B6903F00203022B75
:1029CC0022D17B681B68DB6803F00203022B1BD14E
:1029DC007B681B686FF002021A617B6801221A7710
:1029EC007B681B689B6903F00303002B03D078689A
:1029FC0000F0B1F905E0786800F0A4F9786800F00F
:102A0C00B3F97B6800221A777B681B681B6903F09B
:102A1C000403042B22D17B681B68DB6803F00403DE
:102A2C00042B1BD17B681B686FF004021A617B6856
:102A3C0002221A777B681B689B6903F44073002B96
:102A4C0003D0786800F087F905E0786800F07AF92F
:102A5C00786800F089F97B6800221A777B681B681C
:102A6C001B6903F00803082B22D17B681B68DB6809
:102A7C0003F00803082B1BD17B681B686FF008025E
:102A8C001A617B6804221A777B681B68DB6903F088
:102A9C000303002B03D0786800F05DF905E078683B
:102AAC0000F050F9786800F05FF97B6800221A7723
:102ABC007B681B681B6903F01003102B22D17B6809
:102ACC001B68DB6803F01003102B1BD17B681B68A1
:102ADC006FF010021A617B6808221A777B681B68FA
:102AEC00DB6903F44073002B03D0786800F033F9F2
:102AFC0005E0786800F026F9786800F035F97B6815
:102B0C0000221A777B681B681B6903F00103012BF9
:102B1C000ED17B681B68DB6803F00103012B07D126
:102B2C007B681B686FF001021A617868FEF758FE2B
:102B3C007B681B681B6903F08003802B0ED17B68BC
:102B4C001B68DB6803F08003802B07D17B681B6854
:102B5C006FF080021A61786800F067FA7B681B6876
:102B6C001B6903F04003402B0ED17B681B68DB68AC
:102B7C0003F04003402B07D17B681B686FF04002C9
:102B8C001A61786800F0F9F87B681B681B6903F020
:102B9C002003202B0ED17B681B68DB6803F020031D
:102BAC00202B07D17B681B686FF020021A617868B4
:102BBC0000F032FA00BF0837BD4680BD80B584B046
:102BCC0000AF786039607B6893F83C30012B01D101
:102BDC000223B3E07B68012283F83C207B6802224D
:102BEC0083F83D207B681B689B68FB60FB6823F0C7
:102BFC007703FB60FB6823F47F43FB607B681B68F7
:102C0C00FA689A603B681B68B3F5005F3ED0B3F579
:102C1C00005F00F28780B3F5805F00F08580B3F52C
:102C2C00805F7FD8702B1AD0702B7BD8602B50D044
:102C3C00602B77D8502B3CD0502B73D8402B58D0CE
:102C4C00402B6FD8302B64D0302B6BD8202B60D01E
:102C5C00202B67D8002B5CD0102B5AD062E07B68FD
:102C6C0018683B6899683B685A683B68DB6800F0F9
:102C7C005CF97B681B689B68FB60FB6843F077031F
:102C8C00FB607B681B68FA689A604EE07B6818688A
:102C9C003B6899683B685A683B68DB6800F045F90B
:102CAC007B681B689A687B681B6842F480429A6058
:102CBC003BE07B6818683B6859683B68DB681A46E0
:102CCC0000F0BCF87B681B685021184600F013F923
:102CDC002BE07B6818683B6859683B68DB681A46D0
:102CEC0000F0DAF87B681B686021184600F003F9E5
:102CFC001BE07B6818683B6859683B68DB681A46C0
:102D0C0000F09CF87B681B684021184600F0F3F833
:102D1C000BE07B681A683B681B681946104600F08C
:102D2C00EAF802E000BF00E000BF7B68012283F8F4
:102D3C003D207B68002283F83C2000231846103786
:102D4C00BD4680BD80B483B000AF786000BF0C3747
:102D5C00BD4680BC704780B483B000AF786000BFC4
:102D6C000C37BD4680BC704780B483B000AF786030
:102D7C0000BF0C37BD4680BC704780B483B000AF39
:102D8C00786000BF0C37BD4680BC704780B485B0FE
:102D9C0000AF786039607B681B68FB607B68254AF4
:102DAC00934207D07B68B3F1804F03D07B68224AF3
:102DBC00934208D1FB6823F07003FB603B685B68AF
:102DCC00FA681343FB607B681A4A934207D07B680E
:102DDC00B3F1804F03D07B68174A934208D1FB684C
:102DEC0023F44073FB603B68DB68FA681343FB60B9
:102DFC00FB6823F080023B685B691343FB607B68D4
:102E0C00FA681A603B689A687B68DA623B681A68F1
:102E1C007B689A627B68074A934203D13B681A69C4
:102E2C007B681A637B6801225A6100BF1437BD4668
:102E3C0080BC7047002C01400004004080B487B077
:102E4C0000AFF860B9607A60FB681B6A7B61FB6855
:102E5C001B6A23F00102FB681A62FB689B693B61E9
:102E6C003B6923F0F0033B617B681B013A69134318
:102E7C003B617B6923F00A037B617A69BB6813436E
:102E8C007B61FB683A699A61FB687A691A6200BFD8
:102E9C001C37BD4680BC704780B487B000AFF8606B
:102EAC00B9607A60FB681B6A23F01002FB681A6237
:102EBC00FB689B697B61FB681B6A3B617B6923F444
:102ECC0070437B617B681B037A6913437B613B69AD
:102EDC0023F0A0033B61BB681B013A6913433B61C0
:102EEC00FB687A699A61FB683A691A6200BF1C3701
:102EFC00BD4680BC704780B485B000AF7860396047
:102F0C007B689B68FB60FB6823F07003FB603A688E
:102F1C00FB68134343F00703FB607B68FA689A6015
:102F2C0000BF1437BD4680BC704780B487B000AF7B
:102F3C00F860B9607A603B60FB689B687B617B6979
:102F4C0023F47F437B613B681A027B681A43BB689E
:102F5C0013437A6913437B61FB687A699A6000BFFB
:102F6C001C37BD4680BC704780B485B000AF78601C
:102F7C0039607B6893F83C30012B01D1022341E08E
:102F8C007B68012283F83C207B68022283F83D2079
:102F9C007B681B685B68FB607B681B689B68BB601D
:102FAC00FB6823F07003FB603B681B68FA681343F3
:102FBC00FB607B681B68FA685A607B681B68144A64
:102FCC00934209D07B681B68B3F1804F04D07B68B7
:102FDC001B68104A93420CD1BB6823F08003BB6082
:102FEC003B685B68BA681343BB607B681B68BA6854
:102FFC009A607B68012283F83D207B68002283F86D
:10300C003C20002318461437BD4680BC704700BFD7
:10301C00002C01400004004080B483B000AF786005
:10302C0000BF0C37BD4680BC704780B483B000AF86
:10303C00786000BF0C37BD4680BC704770B5002669
:10304C000C4D0D4C641BA410A64209D100F022F8C3
:10305C0000260A4D0A4C641BA410A64205D170BD73
:10306C0055F8043B98470136EEE755F8043B984772
:10307C000136F2E7D8300008D8300008D830000804
:10308C00DC30000803460244934200D1704703F839
:10309C00011BF9E7F8B500BFF8BC08BC9E467047A9
:0C30AC00F8B500BFF8BC08BC9E46704799
:1030B80002030405060708090A0B0C0D0E0F101071
:1030C80000000000000000000102030406070809D0
:0430D80031010008BA
:0430DC000D010008DA
:1030E00001000000010000000100000001000000DC
:1030F00001000000010000000100000001000000CC
:1031000001000000010000000100000001000000BB
:103110002C0100000024F400100000000100000059
:0400000508001A31A4
:00000001FF
