:020000040800F2
:10000000002800204D170008DD160008E316000840
:10001000E9160008EF160008F516000800000000B9
:10002000000000000000000000000000FB160008B7
:100030000717000800000000131700081F1700082A
:1000400095170008951700089517000895170008E0
:1000500095170008951700089517000895170008D0
:1000600095170008951700089517000895170008C0
:1000700095170008951700089517000895170008B0
:1000800095170008951700089517000895170008A0
:100090009517000895170008951700089517000890
:1000A0009517000895170008951700089517000880
:1000B0002D1700089517000800000000951700088C
:1000C00095170008000000000000000095170008C8
:1000D00000000000951700089517000800000000B8
:1000E00095170008951700089517000800000000F4
:1000F0000000000000000000000000000000000000
:0C01000000000000000000005FF808F1A3
:10010C0010B5054C237833B9044B13B10448AFF345
:10011C0000800123237010BD40000020000000006F
:10012C00BC2D000808B5034B1BB103490348AFF3C2
:10013C00008008BD0000000044000020BC2D000819
:10014C0080B500AF1E4B1B68472B20D0472B34DCEF
:10015C00452B02D0462B07D02FE0194B46221A60B4
:10016C00642001F009FA28E0164B1B68012B21D101
:10017C00144B00221A6000222021134801F007FEC4
:10018C000F4B47221A60642001F0F6F912E00D4B78
:10019C001B68012B10D10B4B00221A60012220216D
:1001AC00094801F0F4FD064B46221A60642001F068
:1001BC00E3F901E000BF00E000BF00BF80BD00BF5D
:1001CC00740000208C0000200008014080B400AFB7
:1001DC00034B01221A6000BFBD4680BC704700BFB4
:1001EC005C00002080B400AF034B01221A6000BFFA
:1001FC00BD4680BC704700BF6000002080B400AFDB
:10020C00034B01221A6000BFBD4680BC704700BF83
:10021C006400002080B500AF1F4B1B681F4A1360A1
:10022C001F4B1B681C4A13604FF400511D4801F012
:10023C0097FD03461A461A4B1A60174B1A68184B4F
:10024C001B689A4226D1144B1A68144B1B689A42AD
:10025C0020D1124B1A68144B1B689A420ED00F4BCC
:10026C001B68114A1360104B1B68002B12D10F4BEB
:10027C004FF496721A60FFF7A9FF0BE00B4B1B684B
:10028C00013B0A4A1360094B1B68002B02D1064B39
:10029C0001221A6000BF80BD04000020080000206D
:1002AC0000000020001001400C0000203000002055
:1002BC0080B500AF234B1B68234A1360234B1B688C
:1002CC00204A13604FF48041214801F049FD034658
:1002DC001A461E4B1A601B4B1A681C4B1B689A4221
:1002EC002DD1184B1A68184B1B689A4227D1164B04
:1002FC001A68184B1B689A420ED0134B1B68154A90
:10030C001360144B1B68002B19D1134B4FF49672CE
:10031C001A60FFF767FF12E00F4B1B68013B0E4A98
:10032C0013600D4B1B68002B09D10A4B1B68002B6B
:10033C0005D10A4B01221A60074B64221A6000BFD8
:10034C0080BD00BF14000020180000201000002009
:10035C00001001401C00002030000020680000202C
:10036C0080B500AF234B1B68234A1360234B1B68DB
:10037C00204A13604FF40041214801F0F1FC034680
:10038C001A461E4B1A601B4B1A681C4B1B689A4270
:10039C002DD1184B1A68184B1B689A4227D1164B53
:1003AC001A68184B1B689A420ED0134B1B68154ADF
:1003BC001360144B1B68002B19D1134B4FF496721E
:1003CC001A60FFF71BFF12E00F4B1B68013B0E4A34
:1003DC0013600D4B1B68002B09D10A4B1B68002BBB
:1003EC0005D10A4B01221A60074B64221A6000BF28
:1003FC0080BD00BF24000020280000202000002029
:10040C00001001402C000020300000206C00002067
:10041C0080B582B000AF78607B68092B00F28081D8
:10042C0001A252F823F000BF5D040008A5040008E7
:10043C00ED040008350500087D050008C505000819
:10044C000D060008550600089D060008E506000884
:10045C0000220221B54801F09AFC00220421B34885
:10046C0001F095FC00220821B04801F090FC00221C
:10047C001021AE4801F08BFC00222021AB4801F08A
:10048C0086FC00224021A94801F081FC0122802138
:10049C00A64801F07CFC44E101220221A34801F0B2
:1004AC0076FC00220421A14801F071FC00220821F5
:1004BC009E4801F06CFC012210219C4801F067FC65
:1004CC0001222021994801F062FC01224021974829
:1004DC0001F05DFC01228021944801F058FC20E1E0
:1004EC0000220221914801F052FC002204218F4885
:1004FC0001F04DFC012208218C4801F048FC00223F
:10050C0010218A4801F043FC00222021874801F089
:10051C003EFC01224021854801F039FC002280215B
:10052C00824801F034FCFCE0002202217F4801F0FB
:10053C002EFC002204217D4801F029FC0022082118
:10054C007A4801F024FC00221021784801F01FFCAD
:10055C0001222021754801F01AFC01224021734828
:10056C0001F015FC00228021704801F010FCD8E04D
:10057C00012202216D4801F00AFC002204216B4883
:10058C0001F005FC00220821684801F000FC012262
:10059C001021664801F0FBFB01222021634801F089
:1005AC00F6FB00224021614801F0F1FB0022802182
:1005BC005E4801F0ECFBB4E0002202215B4801F044
:1005CC00E6FB01220421594801F0E1FB002208213D
:1005DC00564801F0DCFB00221021544801F0D7FBF7
:1005EC0001222021514801F0D2FB002240214F482A
:1005FC0001F0CDFB002280214C4801F0C8FB90E0BB
:10060C0000220221494801F0C2FB01220421474883
:10061C0001F0BDFB00220821444801F0B8FB002288
:10062C001021424801F0B3FB002220213F4801F089
:10063C00AEFB002240213D4801F0A9FB00228021A5
:10064C003A4801F0A4FB6CE000220221374801F08B
:10065C009EFB00220421354801F099FB0022082161
:10066C00324801F094FB01221021304801F08FFB3D
:10067C00012220212D4801F08AFB012240212B4828
:10068C0001F085FB01228021284801F080FB48E025
:10069C0000220221254801F07AFB00220421234884
:1006AC0001F075FB00220821204801F070FB0022AC
:1006BC0010211E4801F06BFB002220211B4801F089
:1006CC0066FB00224021194801F061FB00228021C9
:1006DC00164801F05CFB24E000220221134801F0D3
:1006EC0056FB00220421114801F051FB0022082185
:1006FC000E4801F04CFB012210210C4801F047FB85
:10070C0001222021094801F042FB00224021074828
:10071C0001F03DFB00228021044801F038FB00E091
:10072C0000BF00BF0837BD4680BD00BF000C0140B4
:10073C0080B500AFB14B1B68013B3A2B00F29C819A
:10074C0001A252F823F000BF41080008850A0008F6
:10075C00850A0008850A0008850A0008850A000831
:10076C00850A0008850A0008850A0008850A000821
:10077C00850A0008850A0008850A0008850A000811
:10078C00850A0008850A0008850A0008850A000801
:10079C00850A0008850A0008850A0008850A0008F1
:1007AC00850A0008850A0008850A0008850A0008E1
:1007BC00850A0008850A0008850A0008850A0008D1
:1007CC00850A0008850A0008850A0008850A0008C1
:1007DC00850A0008850A0008850A0008850A0008B1
:1007EC00850A0008850A0008850A0008850A0008A1
:1007FC00850A0008850A0008850A0008850A000891
:10080C00850A0008850A0008850A00085B080008AC
:10081C0087080008BF080008F30800082B09000827
:10082C00630900089B090008D1090008190A00088F
:10083C004F0A00080020FFF7EBFD704B0C221A60EA
:10084C00C82000F085FE6E4B46221A6027E100207E
:10085C00FFF7DEFD6B4B1B68012B02D1694B0022AD
:10086C001A60694B1B68012B40F00881664B002213
:10087C001A60624B0D221A6000E10120FFF7C8FDDF
:10088C00604B1B68012B08D15E4B00221A605B4B3E
:10089C0032221A60642000F05BFE5B4B1B68012B5C
:1008AC0040F0EE80584B00221A60544B0E221A6016
:1008BC00E6E00220FFF7ACFD524B1B68012B08D180
:1008CC00504B00221A604D4B33221A60642000F00A
:1008DC003FFE4D4B1B68012B05D14B4B00221A6080
:1008EC00464B0F221A600320FFF792FD454B1B6805
:1008FC00012B08D1434B00221A60404B34221A6062
:10090C00642000F025FE404B1B68012B40F0BA80A0
:10091C003D4B00221A60394B10221A60B2E00420C1
:10092C00FFF776FD374B1B68012B08D1354B0022A6
:10093C001A60324B35221A60642000F009FE324BEB
:10094C001B68012B40F0A0802F4B00221A602B4B10
:10095C0011221A6098E00520FFF75AFD294B1B68FD
:10096C00012B08D1274B00221A60244B36221A6027
:10097C00642000F0EDFD244B1B68012B40F08680B9
:10098C00214B00221A601D4B11221A607EE01E4B77
:10099C001B68012B05D11C4B00221A60174B12222D
:1009AC001A60184B1B68012B72D1164B00221A606F
:1009BC000620FFF72DFD114B37221A60642000F042
:1009CC00C7FD65E00F4B1B68012B0BD10D4B0022B3
:1009DC001A600720FFF71CFD084B38221A606420B0
:1009EC0000F0B6FD084B1B68012B53D1064B0022BF
:1009FC001A60024B13221A604CE000BF70000020FA
:100A0C00740000208800002060000020254B1B682B
:100A1C00012B05D1234B00221A60234B14221A60A0
:100A2C00224B1B68012B37D1204B00221A60082067
:100A3C00FFF7EEFC1C4B39221A60642000F088FD95
:100A4C002AE0184B1B68012B05D1164B00221A60AB
:100A5C00154B15221A60154B1B68012B1ED1134B1D
:100A6C0000221A600920FFF7D3FC0F4B3A221A60C0
:100A7C00642000F06DFD11E000BF10E000BF0EE03F
:100A8C0000BF0CE000BF0AE000BF08E000BF06E0BA
:100A9C0000BF04E000BF02E000BF00E000BF00BFE9
:100AAC0080BD00BF60000020700000208800002086
:100ABC0080B500AF884B1B681E3B092B00F2F480FD
:100ACC0001A252F823F000BFFD0A0008310B000808
:100ADC00650B0008990B0008CD0B0008FD0B0008F6
:100AEC002D0C00084F0C0008710C0008930C00082A
:100AFC000020FFF78DFC794B1B68012B40F0D68052
:100B0C00764B00221A60764B1B68012B40F0CE808E
:100B1C00734B00221A60704B1F221A60642000F085
:100B2C0003FDC3E00120FFF773FC6C4B1B68012B2A
:100B3C0040F0BE80694B00221A60694B1B68012B88
:100B4C0040F0B680664B00221A60634B20221A607C
:100B5C00642000F0E9FCABE00220FFF759FC5F4B8E
:100B6C001B68012B40F0A6805C4B00221A605C4B8A
:100B7C001B68012B40F09E80594B00221A60564B8B
:100B8C0021221A60642000F0CFFC93E00320FFF7D1
:100B9C003FFC524B1B68012B40F08E804F4B0022C8
:100BAC001A604F4B1B68012B40F086804C4B002287
:100BBC001A60494B22221A60642000F0B5FC7BE0DD
:100BCC000420FFF725FC454B1B68012B76D1434BCA
:100BDC0000221A60424B1B68012B6FD1404B002244
:100BEC001A603D4B23221A60642000F09DFC65E0E6
:100BFC000520FFF70DFC394B1B68012B60D1374BDF
:100C0C0000221A60364B1B68012B59D1344B002241
:100C1C001A60314B24221A60642000F085FC4FE0EE
:100C2C000620FFF7F5FB2D4B1B68012B4AD12B4BF4
:100C3C0000221A60284B25221A60642000F074FCF4
:100C4C0040E00720FFF7E4FB244B1B68012B3BD152
:100C5C00224B00221A60204B26221A60642000F0DE
:100C6C0063FC31E00820FFF7D3FB1C4B1B68012B06
:100C7C002CD11A4B00221A60174B27221A606420C1
:100C8C0000F052FC22E00920FFF7C2FB134B1B685B
:100C9C00012B1DD1114B00221A600F4B1E221A6022
:100CAC00642000F041FC13E000BF12E000BF10E034
:100CBC0000BF0EE000BF0CE000BF0AE000BF08E080
:100CCC0000BF06E000BF04E000BF02E000BF00E090
:100CDC0000BF00BF80BD00BF70000020840000205A
:100CEC006800002080B500AF8E4B1B680C3B092BB5
:100CFC0000F2C78201A252F823F000BF310D0008A8
:100D0C00A30D0008290E0008AF0E0008490F0008BB
:100D1C00C90F000849100008CF1000085511000831
:100D2C00F11100080020FFF773FB7F4B1B68012BB0
:100D3C0008D17D4B00221A607A4B0D221A60C82014
:100D4C0000F006FC794B1B68012B08D1774B002275
:100D5C001A60744B1E221A60642000F0E5FB744B81
:100D6C001B68012B08D1724B00221A606D4B1522A7
:100D7C001A60C82000F0ECFB6E4B1B68012B40F096
:100D8C0082826C4B00221A60664B32221A606420FD
:100D9C0000F0DEFB77E20120FFF73AFB664B1B68A5
:100DAC00012B05D1644B00221A605E4B01221A60A4
:100DBC005D4B1B68012B08D15B4B00221A60594B11
:100DCC000E221A60C82000F0C3FB584B1B68012B85
:100DDC0008D1564B00221A60524B1F221A60642015
:100DEC0000F0A2FB524B1B68012B08D1504B002288
:100DFC001A604C4B0C221A60C82000F0A9FB4D4B1A
:100E0C001B68012B40F041824A4B00221A60454B73
:100E1C0033221A60642000F09BFB36E20220FFF7BD
:100E2C00F7FA454B1B68012B05D1434B00221A6086
:100E3C003C4B01221A603C4B1B68012B08D13A4BEE
:100E4C0000221A60374B0F221A60C82000F080FB7A
:100E5C00364B1B68012B08D1344B00221A60314BE6
:100E6C0020221A60642000F05FFB314B1B68012BC1
:100E7C0008D12F4B00221A602A4B0D221A60C82071
:100E8C0000F066FB2B4B1B68012B40F00082294BBA
:100E9C0000221A60234B34221A60642000F058FBA5
:100EAC00F5E10320FFF7B4FA234B1B68012B05D1A6
:100EBC00214B00221A601B4B01221A601A4B1B6833
:100ECC00012B08D1184B00221A60164B10221A6005
:100EDC00C82000F03DFB154B1B68012B05D1114BB5
:100EEC0021221A60642000F01FFB114B1B68012BA0
:100EFC0008D10F4B00221A600A4B0E221A60C82030
:100F0C0000F026FB0B4B1B68012B40F0C281094BF8
:100F1C0000221A60034B35221A60642000F018FB83
:100F2C00B7E100BF700000206000002068000020C6
:100F3C0064000020880000205C0000200420FFF7E3
:100F4C0067FAA24B1B68012B05D1A04B00221A603B
:100F5C009F4B01221A609F4B1B68012B08D19D4BA4
:100F6C0000221A609A4B11221A60C82000F0F0FA85
:100F7C00994B1B68012B05D1954B22221A606420DA
:100F8C0000F0D2FA954B1B68012B08D1934B002231
:100F9C001A608F4B0F221A60C82000F0D9FA904BC0
:100FAC001B68012B40F077818D4B00221A60884B17
:100FBC0036221A60642000F0CBFA6CE1834B1B687C
:100FCC00012B05D1814B00221A60814B01221A6042
:100FDC000520FFF71DFA7F4B1B68012B05D17C4BBD
:100FEC0012221A60C82000F0B3FA7B4B1B68012B4D
:100FFC0008D1794B00221A60754B23221A606420A9
:10100C0000F092FA754B1B68012B08D1734B002230
:10101C001A606F4B10221A60C82000F099FA704BBE
:10102C001B68012B40F039816D4B00221A60684B14
:10103C0037221A60642000F08BFA2EE10620FFF7AD
:10104C00E7F9624B1B68012B05D1604B00221A603B
:10105C005F4B01221A605F4B1B68012B08D15D4B63
:10106C0000221A605A4B13221A60C82000F070FA42
:10107C00594B1B68012B08D1574B00221A60544B5B
:10108C0025221A60642000F04FFA544B1B68012B88
:10109C0008D1524B00221A604D4B11221A60C82005
:1010AC0000F056FA4E4B1B68012B40F0F8804C4B6D
:1010BC0000221A60464B38221A60642000F048FA6D
:1010CC00EDE00720FFF7A4F9404B1B68012B05D17D
:1010DC003E4B00221A603E4B01221A603D4B1B68AE
:1010EC00012B08D13B4B00221A60394B14221A6099
:1010FC00C82000F02DFA384B1B68012B08D1364B59
:10110C0000221A60324B26221A60642000F00CFA7E
:10111C00324B1B68012B08D1304B00221A602C4B30
:10112C0012221A60C82000F013FA2D4B1B68012BF9
:10113C0040F0B7802A4B00221A60254B39221A60E6
:10114C00642000F005FAACE0204B1B68012B05D1A4
:10115C001E4B00221A601E4B01221A600820FFF75A
:10116C0057F91C4B1B68012B08D11A4B00221A6033
:10117C00174B15221A60C82000F0EAF9164B1B68B1
:10118C00012B08D1144B00221A60114B27221A6034
:10119C00642000F0C9F9114B1B68012B08D10F4BCF
:1011AC0000221A600A4B13221A60C82000F0D0F9F2
:1011BC000B4B1B68012B76D1094B00221A60044B98
:1011CC003A221A60642000F0C3F96CE05C00002045
:1011DC0070000020600000206800002064000020E7
:1011EC00880000200920FFF713F9314B1B68012BF5
:1011FC0008D12F4B00221A602E4B01221A60C820F6
:10120C0000F0A6F92C4B1B68012B05D12A4B0022B0
:10121C001A60284B01221A60284B1B68012B08D13D
:10122C00264B00221A60234B1E221A60642000F009
:10123C007BF9234B1B68012B08D1214B00221A6030
:10124C001C4B3B221A60642000F082F91D4B1B687A
:10125C00012B08D11B4B00221A60164B14221A606A
:10126C00C82000F075F9184B1B68012B1DD1164BCB
:10127C0000221A600F4B27221A60642000F054F9E8
:10128C0013E000BF12E000BF10E000BF0EE000BF93
:10129C000CE000BF0AE000BF08E000BF06E000BFA2
:1012AC0004E000BF02E000BF00E000BF00BF80BD53
:1012BC005C0000207000002060000020680000200E
:1012CC0088000020640000206C00002080B500AF76
:1012DC0000F05CFA00F01CF800F0A2F800F054F8F2
:1012EC00084801F0A5F9084B01221A60074B45226A
:1012FC001A60FFF71DFAFFF7F5FCFFF7D9FBFEF7B5
:10130C001FFFF6E790000020700000207400002002
:10131C0080B590B000AF07F11803282200211846C1
:10132C0001F03EFD3B1D00221A605A609A60DA60A3
:10133C001A610223BB610123BB621023FB620023F1
:10134C007B6307F11803184600F03AFD0346002BA7
:10135C0001D000F0E3F80F237B600023BB60002377
:10136C00FB6000233B6100237B613B1D0021184681
:10137C0000F0A6FF0346002B01D000F0CFF800BF11
:10138C004037BD4680BD000080B586B000AF07F188
:10139C00080300221A605A609A60DA603B46002209
:1013AC001A605A601D4B4FF080421A601B4B41F67D
:1013BC003F725A60194B00229A60184B0922DA606E
:1013CC00164B00221A61154B00229A61134801F04A
:1013DC00DFF80346002B01D000F0A0F84FF4805347
:1013EC00BB6007F1080319460C4801F075FA034677
:1013FC00002B01D000F092F800233B6000237B60AF
:10140C003B461946054801F03DFC0346002B01D034
:10141C0000F084F800BF1837BD4680BD9000002056
:10142C0080B588B000AF07F1100300221A605A6033
:10143C009A60DA602D4B9B692C4A43F01003936140
:10144C002A4B9B6903F01003FB60FB68274B9B69DD
:10145C00264A43F004039361244B9B6903F0040375
:10146C00BB60BB68214B9B69204A43F00803936126
:10147C001E4B9B6903F008037B607B680022702184
:10148C001B4800F084FC0022FE211A4800F07FFC6F
:10149C004FF460433B6100237B610123BB6107F187
:1014AC0010031946144800F0E1FA70233B61012344
:1014BC007B610023BB610223FB6107F1100319461A
:1014CC000B4800F0D3FAFE233B6101237B61002320
:1014DC00BB610223FB6107F110031946054800F0BC
:1014EC00C5FA00BF2037BD4680BD00BF00100240CA
:1014FC0000080140000C01400010014080B582B092
:10150C0000AF786000F04CF8FEF784FEFEF7D0FEDA
:10151C00FEF726FF00BF0837BD4680BD80B400AF84
:10152C0072B600BFFEE7000080B483B000AF7860F5
:10153C00054A7B681360054B00221A6000BF0C370C
:10154C00BD4680BC704700BF78000020840000209E
:10155C0080B483B000AF7860054A7B681360054B9C
:10156C0000221A6000BF0C37BD4680BC704700BF1C
:10157C007C0000208800002080B483B000AF78602D
:10158C00054A7B681360054B00221A6000BF0C37BC
:10159C00BD4680BC704700BF800000208C0000203E
:1015AC0080B400AF194B1B68002B04D0174B1B6881
:1015BC00013B164A1360154B1B68002B02DC144BC5
:1015CC0001221A60134B1B68002B04D0114B1B68B3
:1015DC00013B104A13600F4B1B68002B02DC0E4BB7
:1015EC0001221A600D4B1B68002B04D00B4B1B689F
:1015FC00013B0A4A1360094B1B68002B02DC084BA9
:10160C0001221A6000BFBD4680BC704778000020E4
:10161C00840000207C000020880000208000002036
:10162C008C00002080B485B000AF154B9B69144A28
:10163C0043F001039361124B9B6903F00103BB6000
:10164C00BB680F4BDB690E4A43F08053D3610C4BE4
:10165C00DB6903F080537B607B680A4B5B68FB6043
:10166C00FB6823F0E063FB60FB6843F08063FB6086
:10167C00044AFB68536000BF1437BD4680BC7047FA
:10168C00001002400000014080B584B000AF7860CB
:10169C007B681B68B3F1804F13D10C4BDB690B4A91
:1016AC0043F00103D361094BDB6903F00103FB60D9
:1016BC00FB68002200211C2000F0A1F91C2000F086
:1016CC00BAF900BF1037BD4680BD00BF0010024004
:1016DC0080B400AFFEE780B400AFFEE780B400AF8B
:1016EC00FEE780B400AFFEE780B400AFFEE780B445
:1016FC0000AF00BFBD4680BC704780B400AF00BFD8
:10170C00BD4680BC704780B400AF00BFBD4680BCF6
:10171C00704780B500AF00F07FF800BF80BD0000BF
:10172C0080B500AF024800F0CFFF00BF80BD00BF06
:10173C009000002080B400AF00BFBD4680BC704755
:10174C000C480D490D4A002302E0D458C450043310
:10175C00C4188C42F9D30A4A0A4C002301E01360E6
:10176C000432A242FBD3FFF7E5FF01F0F5FAFFF7D5
:10177C00ADFD70470000002040000020FC2D00084B
:10178C0040000020DC000020FEE7000080B500AF28
:10179C00084B1B68074A43F010031360032000F04A
:1017AC0023F90F2000F008F8FFF73CFF0023184640
:1017BC0080BD00BF0020024080B582B000AF7860D1
:1017CC00124B1A68124B1B7819464FF47A73B3FB01
:1017DC00F1F3B2FBF3F3184600F03BF90346002B90
:1017EC0001D001230EE07B680F2B0AD80022796808
:1017FC004FF0FF3000F003F9064A7B6813600023BA
:10180C0000E0012318460837BD4680BD3400002097
:10181C003C0000203800002080B400AF054B1B7842
:10182C001A46054B1B681344034A136000BFBD46A0
:10183C0080BC70473C000020D800002080B400AF72
:10184C00024B1B681846BD4680BC7047D800002070
:10185C0080B485B000AF78607B6803F00703FB6051
:10186C000C4BDB68BB60BA684FF6FF031340BB60E0
:10187C00FB681A02BB68134343F0BF6343F40033A5
:10188C00BB60044ABB68D36000BF1437BD4680BC44
:10189C00704700BF00ED00E080B400AF044BDB6884
:1018AC001B0A03F007031846BD4680BC704700BFF7
:1018BC0000ED00E080B483B000AF0346FB7197F9F4
:1018CC000730002B0BDBFB7903F01F02064997F95D
:1018DC0007305B09012000FA02F241F8232000BF17
:1018EC000C37BD4680BC704700E100E080B483B08B
:1018FC0000AF03463960FB7197F90730002B0ADB08
:10190C003B68DAB20C4997F907301201D2B20B449A
:10191C0083F800230AE03B68DAB20849FB7903F04C
:10192C000F03043B1201D2B20B441A7600BF0C37E2
:10193C00BD4680BC704700BF00E100E000ED00E058
:10194C0080B489B000AFF860B9607A60FB6803F0CE
:10195C000703FB61FB69C3F10703042B28BF0423B6
:10196C00BB61FB690433062B02D9FB69033B00E026
:10197C0000237B614FF0FF32BB6902FA03F3DA43B9
:10198C00BB681A407B699A404FF0FF317B6901FAC2
:10199C0003F3D9437B680B40134318462437BD46E9
:1019AC0080BC704780B582B000AF78607B68013B2B
:1019BC00B3F1807F01D301230FE00A4A7B68013B1E
:1019CC0053600F214FF0FF30FFF790FF054B0022C3
:1019DC009A60044B07221A60002318460837BD464C
:1019EC0080BD00BF10E000E080B582B000AF786031
:1019FC007868FFF72DFF00BF0837BD4680BD80B566
:101A0C0086B000AF0346B9607A60FB7300237B613C
:101A1C00FFF742FF78617A68B9687869FFF790FF41
:101A2C00024697F90F3011461846FFF75FFF00BFCB
:101A3C001837BD4680BD80B582B000AF0346FB7140
:101A4C0097F907301846FFF735FF00BF0837BD463A
:101A5C0080BD80B582B000AF78607868FFF7A2FFD8
:101A6C00034618460837BD4680BD000080B48BB0D5
:101A7C0000AF7860396000237B6200233B6248E151
:101A8C0001227B6A02FA03F3FB613B681B68FA696B
:101A9C001340BB61BA69FB699A4240F037813B68DD
:101AAC005B68A34A93425ED0A14A934275D8A14A7F
:101ABC00934258D09F4A93426FD89F4A934252D038
:101ACC009D4A934269D89D4A93424CD09B4A93427B
:101ADC0063D89B4A934246D0994A93425DD8122BC5
:101AEC002AD8122B59D801A252F823F0731B0008E4
:101AFC004D1B00085F1B0008A11B0008A71B00085A
:101B0C00A71B0008A71B0008A71B0008A71B0008A1
:101B1C00A71B0008A71B0008A71B0008A71B000891
:101B2C00A71B0008A71B0008A71B0008A71B000881
:101B3C00551B0008691B0008824A934213D02CE005
:101B4C003B68DB683B6229E03B68DB6804333B6243
:101B5C0024E03B68DB6808333B621FE03B68DB68D2
:101B6C000C333B621AE03B689B68002B02D10423C8
:101B7C003B6213E03B689B68012B05D108233B6259
:101B8C007B68FA691A6109E008233B627B68FA6991
:101B9C005A6103E000233B6200E000BFBB69FF2BEE
:101BAC0001D87B6801E07B6804337B61BB69FF2B48
:101BBC0002D87B6A9B0002E07B6A083B9B003B617E
:101BCC007B691A680F213B6901FA03F3DB431A4066
:101BDC00396A3B6901FA03F31A437B691A603B6863
:101BEC005B6803F08053002B00F09080564B9B6990
:101BFC00554A43F001039361534B9B6903F0010376
:101C0C00BB60BB68514A7B6A9B08023352F8233095
:101C1C00FB607B6A03F003039B000F2202FA03F3C1
:101C2C00DB43FA681340FB607B68494A93420DD052
:101C3C007B68484A934207D07B68474A934201D15C
:101C4C00022304E0032302E0012300E000237A6A6C
:101C5C0002F0030292009340FA681343FB603B4985
:101C6C007B6A9B080233FA6841F823203B685B6867
:101C7C0003F48033002B06D0384B1A683749BB6904
:101C8C0013430B6006E0354B1A68BB69DB433349E1
:101C9C0013400B603B685B6803F40033002B06D0E9
:101CAC002E4B5A682D49BB6913434B6006E02B4BF6
:101CBC005A68BB69DB43294913404B603B685B683E
:101CCC0003F48013002B06D0244B9A682349BB697C
:101CDC0013438B6006E0214B9A68BB69DB431F49B9
:101CEC0013408B603B685B6803F40013002B06D039
:101CFC001A4BDA681949BB691343CB6006E0174BE2
:101D0C00DA68BB69DB4315491340CB607B6A01334E
:101D1C007B623B681A687B6A22FA03F3002B7FF420
:101D2C00AFAE00BF00BF2C37BD4680BC704700BFB4
:101D3C0000003210000031100000221000002110B1
:101D4C0000001210000011100010024000000140B1
:101D5C0000080140000C014000100140000401404B
:101D6C0080B485B000AF78600B467B807B689A6846
:101D7C007B881340002B02D00123FB7301E000236E
:101D8C00FB73FB7B18461437BD4680BC704780B490
:101D9C0083B000AF78600B467B8013467B707B78FA
:101DAC00002B03D07A887B681A6103E07B881A04C5
:101DBC007B681A6100BF0C37BD4680BC70470000C1
:101DCC0080B586B000AF78607B68002B01D1012311
:101DDC006CE27B681B6803F00103002B00F087802A
:101DEC00924B5B6803F00C03042B0CD08F4B5B689D
:101DFC0003F00C03082B12D18C4B5B6803F480337B
:101E0C00B3F5803F0BD1894B1B6803F40033002BD7
:101E1C006CD07B685B68002B68D1012346E27B6841
:101E2C005B68B3F5803F06D1804B1B687F4A43F457
:101E3C00803313602EE07B685B68002B0CD17B4BEE
:101E4C001B687A4A23F480331360784B1B68774AFB
:101E5C0023F4802313601DE07B685B68B3F5A02F2F
:101E6C000CD1724B1B68714A43F4802313606F4B87
:101E7C001B686E4A43F4803313600BE06B4B1B689A
:101E8C006A4A23F480331360684B1B68674A23F457
:101E9C00802313607B685B68002B13D0FFF7CEFCAC
:101EAC00386108E0FFF7CAFC02463B69D31A642B81
:101EBC0001D90323FAE15D4B1B6803F40033002BBB
:101ECC00F0D014E0FFF7BAFC386108E0FFF7B6FC7D
:101EDC0002463B69D31A642B01D90323E6E1534B29
:101EEC001B6803F40033002BF0D100E000BF7B68CB
:101EFC001B6803F00203002B63D04C4B5B6803F0B0
:101F0C000C03002B0BD0494B5B6803F00C03082B24
:101F1C001CD1464B5B6803F48033002B16D1434B2A
:101F2C001B6803F00203002B05D07B681B69012B97
:101F3C0001D00123BAE13D4B1B6823F0F8027B680A
:101F4C005B69DB00394913430B603AE07B681B6922
:101F5C00002B20D0364B01221A60FFF76FFC386142
:101F6C0008E0FFF76BFC02463B69D31A022B01D940
:101F7C0003239BE12D4B1B6803F00203002BF0D0D5
:101F8C002A4B1B6823F0F8027B685B69DB0027494E
:101F9C0013430B6015E0264B00221A60FFF74EFC32
:101FAC00386108E0FFF74AFC02463B69D31A022B62
:101FBC0001D903237AE11D4B1B6803F00203002BAC
:101FCC00F0D17B681B6803F00803002B3AD07B68C8
:101FDC009B69002B19D0174B01221A60FFF72EFCBE
:101FEC00386108E0FFF72AFC02463B69D31A022B42
:101FFC0001D903235AE10D4B5B6A03F00203002B5A
:10200C00F0D0012000F0A6FA1CE00A4B00221A6066
:10201C00FFF714FC38610FE0FFF710FC02463B6938
:10202C00D31A022B08D9032340E100BF0010024051
:10203C0000004242800442429E4B5B6A03F0020362
:10204C00002BE9D17B681B6803F00403002B00F024
:10205C00A6800023FB75974BDB6903F08053002BA4
:10206C000DD1944BDB69934A43F08053D361914B70
:10207C00DB6903F08053BB60BB680123FB758E4B9F
:10208C001B6803F48073002B18D18B4B1B688A4A96
:10209C0043F480731360FFF7D1FB386108E0FFF75E
:1020AC00CDFB02463B69D31A642B01D90323FDE017
:1020BC00814B1B6803F48073002BF0D07B68DB68CA
:1020CC00012B06D17B4B1B6A7A4A43F00103136246
:1020DC002DE07B68DB68002B0CD1764B1B6A754AB4
:1020EC0023F001031362734B1B6A724A23F004033F
:1020FC0013621CE07B68DB68052B0CD16D4B1B6AF3
:10210C006C4A43F0040313626A4B1B6A694A43F03E
:10211C00010313620BE0674B1B6A664A23F0010351
:10212C001362644B1B6A634A23F0040313627B68DB
:10213C00DB68002B15D0FFF781FB38610AE0FFF755
:10214C007DFB02463B69D31A41F28832934201D996
:10215C000323ABE0574B1B6A03F00203002BEED0BA
:10216C0014E0FFF76BFB38610AE0FFF767FB0246F0
:10217C003B69D31A41F28832934201D9032395E08B
:10218C004C4B1B6A03F00203002BEED1FB7D012BA1
:10219C0005D1484BDB69474A23F08053D3617B68F8
:1021AC00DB69002B00F08180424B5B6803F00C0371
:1021BC00082B61D07B68DB69022B46D13F4B002298
:1021CC001A60FFF73BFB386108E0FFF737FB02466C
:1021DC003B69D31A022B01D9032367E0354B1B68EB
:1021EC0003F00073002BF0D17B681B6AB3F5803FC2
:1021FC0008D1304B5B6823F400327B689B682D4917
:10220C0013434B602B4B5B6823F474127B68196A85
:10221C007B685B6A0B43274913434B60274B0122B6
:10222C001A60FFF70BFB386108E0FFF707FB02466B
:10223C003B69D31A022B01D9032337E01D4B1B68D2
:10224C0003F00073002BF0D02FE01C4B00221A601F
:10225C00FFF7F4FA386108E0FFF7F0FA02463B6941
:10226C00D31A022B01D9032320E0124B1B6803F075
:10227C000073002BF0D118E07B68DB69012B01D1D6
:10228C00012313E00B4B5B68FB60FB6803F48032AB
:10229C007B681B6A9A4206D1FB6803F470127B6858
:1022AC005B6A9A4201D0012300E0002318461837DC
:1022BC00BD4680BD001002400070004060004242EC
:1022CC0080B584B000AF786039607B68002B01D199
:1022DC000123D0E06A4B1B6803F007033A689A426B
:1022EC0010D9674B1B6823F0070265493B68134301
:1022FC000B60634B1B6803F007033A689A4201D0EA
:10230C000123B8E07B681B6803F00203002B20D08C
:10231C007B681B6803F00403002B05D0594B5B68EA
:10232C00584A43F4E06353607B681B6803F008036E
:10233C00002B05D0534B5B68524A43F460535360F7
:10234C00504B5B6823F0F0027B689B684D4913434C
:10235C004B607B681B6803F00103002B40D07B684B
:10236C005B68012B07D1474B1B6803F40033002B30
:10237C0015D101237FE07B685B68022B07D1414BB1
:10238C001B6803F00073002B09D1012373E03D4B54
:10239C001B6803F00203002B01D101236BE0394BC6
:1023AC005B6823F003027B685B68364913434B6020
:1023BC00FFF744FAF8600AE0FFF740FA0246FB68C0
:1023CC00D31A41F28832934201D9032353E02D4BA7
:1023DC005B6803F00C027B685B689B009A42EBD154
:1023EC00274B1B6803F007033A689A4210D2244B20
:1023FC001B6823F0070222493B6813430B60204BF8
:10240C001B6803F007033A689A4201D0012332E0BB
:10241C007B681B6803F00403002B08D0194B5B6826
:10242C0023F4E0627B68DB68164913434B607B68DE
:10243C001B6803F00803002B09D0124B5B6823F4D4
:10244C0060527B681B69DB000E4913434B6000F044
:10245C0021F802460B4B5B681B0903F00F030A497A
:10246C00CB5C22FA03F3094A1360094B1B6818462C
:10247C00FFF7A2F9002318461037BD4680BD00BFF8
:10248C000020024000100240E42D0008340000201F
:10249C003800002090B48AB000AF2A4B3C1D0FCB03
:1024AC0084E80F0040F201233B800023FB610023F2
:1024BC00BB6100237B6200237B6100233B62224BC8
:1024CC005B68FB61FB6903F00C03042B02D0082B47
:1024DC0003D02DE01D4B3B622DE0FB699B0C03F000
:1024EC000F0307F12802134413F8243C7B61FB69AA
:1024FC0003F48033002B13D0134B5B685B0C03F09D
:10250C00010307F12802134413F8283CBB617B69D3
:10251C000E4A02FB03F2BB69B2FBF3F37B6204E0ED
:10252C007B690B4A02FB03F37B627B6A3B6202E032
:10253C00064B3B6200BF3B6A18462837BD4690BC31
:10254C00704700BFD42D00080010024000127A0022
:10255C0000093D0080B485B000AF78600A4B1B6861
:10256C000A4AA2FB03235B0A7A6802FB03F3FB60B3
:10257C0000BFFB685A1EFA60002BF9D100BF00BFE8
:10258C001437BD4680BC704734000020D34D621018
:10259C0080B582B000AF78607B68002B01D101233D
:1025AC0041E07B6893F83D30DBB2002B06D17B68B1
:1025BC00002283F83C207868FFF766F87B680222DB
:1025CC0083F83D207B681A687B68043319461046F3
:1025DC0000F06AFA7B68012283F846207B680122AE
:1025EC0083F83E207B68012283F83F207B68012220
:1025FC0083F840207B68012283F841207B6801220C
:10260C0083F842207B68012283F843207B680122F7
:10261C0083F844207B68012283F845207B680122E3
:10262C0083F83D20002318460837BD4680BD0000C6
:10263C0080B485B000AF78607B6893F83D30DBB236
:10264C00012B01D0012335E07B68022283F83D2069
:10265C007B681B68DA687B681B6842F00102DA60F1
:10266C007B681B68164A934209D07B681B68B3F1E0
:10267C00804F04D07B681B68124A934211D17B684F
:10268C001B689B6803F00703FB60FB68062B10D0EC
:10269C007B681B681A687B681B6842F001021A6031
:1026AC0007E07B681B681A687B681B6842F00102B4
:1026BC001A60002318461437BD4680BC704700BF13
:1026CC00002C01400004004080B582B000AF78605F
:1026DC007B681B681B6903F00203022B22D17B6809
:1026EC001B68DB6803F00203022B1BD17B681B68A1
:1026FC006FF002021A617B6801221A777B681B68F3
:10270C009B6903F00303002B03D0786800F0B1F948
:10271C0005E0786800F0A4F9786800F0B3F97B68FC
:10272C0000221A777B681B681B6903F00403042BD7
:10273C0022D17B681B68DB6803F00403042B1BD1DC
:10274C007B681B686FF004021A617B6802221A779F
:10275C007B681B689B6903F44073002B03D078687B
:10276C0000F087F905E0786800F07AF9786800F0F5
:10277C0089F97B6800221A777B681B681B6903F058
:10278C000803082B22D17B681B68DB6803F0080365
:10279C00082B1BD17B681B686FF008021A617B68E1
:1027AC0004221A777B681B68DB6903F00303002B98
:1027BC0003D0786800F05DF905E0786800F050F916
:1027CC00786800F05FF97B6800221A777B681B68D9
:1027DC001B6903F01003102B22D17B681B68DB688C
:1027EC0003F01003102B1BD17B681B686FF01002D9
:1027FC001A617B6808221A777B681B68DB6903F413
:10280C004073002B03D0786800F033F905E078684A
:10281C0000F026F9786800F035F97B6800221A7709
:10282C007B681B681B6903F00103012B0ED17B68CD
:10283C001B68DB6803F00103012B07D17B681B6865
:10284C006FF001021A617868FEF758FE7B681B680E
:10285C001B6903F08003802B0ED17B681B68DB683F
:10286C0003F08003802B07D17B681B686FF080021C
:10287C001A61786800F067FA7B681B681B6903F0C3
:10288C004003402B0ED17B681B68DB6803F04003D0
:10289C00402B07D17B681B686FF040021A61786887
:1028AC0000F0F9F87B681B681B6903F02003202BF0
:1028BC000ED17B681B68DB6803F02003202B07D14B
:1028CC007B681B686FF020021A61786800F032FA9E
:1028DC0000BF0837BD4680BD80B584B000AF7860BE
:1028EC0039607B6893F83C30012B01D10223B3E0B3
:1028FC007B68012283F83C207B68022283F83D2010
:10290C007B681B689B68FB60FB6823F07703FB60AC
:10291C00FB6823F47F43FB607B681B68FA689A6052
:10292C003B681B68B3F5005F3ED0B3F5005F00F267
:10293C008780B3F5805F00F08580B3F5805F7FD82A
:10294C00702B1AD0702B7BD8602B50D0602B77D883
:10295C00502B3CD0502B73D8402B58D0402B6FD8D9
:10296C00302B64D0302B6BD8202B60D0202B67D829
:10297C00002B5CD0102B5AD062E07B6818683B6847
:10298C0099683B685A683B68DB6800F05CF97B68C7
:10299C001B689B68FB60FB6843F07703FB607B68FC
:1029AC001B68FA689A604EE07B6818683B68996807
:1029BC003B685A683B68DB6800F045F97B681B682C
:1029CC009A687B681B6842F480429A603BE07B68A3
:1029DC0018683B6859683B68DB681A4600F0BCF81D
:1029EC007B681B685021184600F013F92BE07B68BC
:1029FC0018683B6859683B68DB681A4600F0DAF8DF
:102A0C007B681B686021184600F003F91BE07B68AB
:102A1C0018683B6859683B68DB681A4600F09CF8FC
:102A2C007B681B684021184600F0F3F80BE07B68CC
:102A3C001A683B681B681946104600F0EAF802E079
:102A4C0000BF00E000BF7B68012283F83D207B685B
:102A5C00002283F83C20002318461037BD4680BD69
:102A6C0080B483B000AF786000BF0C37BD4680BC2B
:102A7C00704780B483B000AF786000BF0C37BD46A0
:102A8C0080BC704780B483B000AF786000BF0C3757
:102A9C00BD4680BC704780B483B000AF786000BF87
:102AAC000C37BD4680BC704780B485B000AF7860F1
:102ABC0039607B681B68FB607B68254A934207D0B2
:102ACC007B68B3F1804F03D07B68224A934208D1D4
:102ADC00FB6823F07003FB603B685B68FA68134388
:102AEC00FB607B681A4A934207D07B68B3F1804F36
:102AFC0003D07B68174A934208D1FB6823F44073D8
:102B0C00FB603B68DB68FA681343FB60FB6823F0EF
:102B1C0080023B685B691343FB607B68FA681A6050
:102B2C003B689A687B68DA623B681A687B689A62D1
:102B3C007B68074A934203D13B681A697B681A6326
:102B4C007B6801225A6100BF1437BD4680BC7047B8
:102B5C00002C01400004004080B487B000AFF86046
:102B6C00B9607A60FB681B6A7B61FB681B6A23F0A7
:102B7C000102FB681A62FB689B693B613B6923F0AD
:102B8C00F0033B617B681B013A6913433B617B6932
:102B9C0023F00A037B617A69BB6813437B61FB6892
:102BAC003A699A61FB687A691A6200BF1C37BD46A4
:102BBC0080BC704780B487B000AFF860B9607A60B1
:102BCC00FB681B6A23F01002FB681A62FB689B69A6
:102BDC007B61FB681B6A3B617B6923F470437B61FF
:102BEC007B681B037A6913437B613B6923F0A00369
:102BFC003B61BB681B013A6913433B61FB687A6913
:102C0C009A61FB683A691A6200BF1C37BD4680BCEA
:102C1C00704780B485B000AF786039607B689B6882
:102C2C00FB60FB6823F07003FB603A68FB6813439E
:102C3C0043F00703FB607B68FA689A6000BF1437A7
:102C4C00BD4680BC704780B487B000AFF860B960F7
:102C5C007A603B60FB689B687B617B6923F47F43F4
:102C6C007B613B681A027B681A43BB6813437A6921
:102C7C0013437B61FB687A699A6000BF1C37BD46C1
:102C8C0080BC704780B485B000AF786039607B68D9
:102C9C0093F83C30012B01D1022341E07B680122E7
:102CAC0083F83C207B68022283F83D207B681B68FC
:102CBC005B68FB607B681B689B68BB60FB6823F0F0
:102CCC007003FB603B681B68FA681343FB607B680E
:102CDC001B68FA685A607B681B68144A934209D0D7
:102CEC007B681B68B3F1804F04D07B681B68104A6B
:102CFC0093420CD1BB6823F08003BB603B685B68DC
:102D0C00BA681343BB607B681B68BA689A607B68BF
:102D1C00012283F83D207B68002283F83C200023AD
:102D2C0018461437BD4680BC704700BF002C0140CC
:102D3C000004004080B483B000AF786000BF0C3753
:102D4C00BD4680BC704780B483B000AF786000BFD4
:102D5C000C37BD4680BC704770B500260C4D0D4C31
:102D6C00641BA410A64209D100F022F800260A4DDB
:102D7C000A4C641BA410A64205D170BD55F8043B47
:102D8C0098470136EEE755F8043B98470136F2E7D1
:102D9C00F42D0008F42D0008F42D0008F82D00087F
:102DAC0003460244934200D1704703F8011BF9E734
:102DBC00F8B500BFF8BC08BC9E467047F8B500BF1C
:082DCC00F8BC08BC9E467047EC
:102DD40002030405060708090A0B0C0D0E0F101058
:102DE40000000000000000000102030406070809B7
:042DF40031010008A1
:042DF8000D010008C1
:102DFC0001000000010000000100000001000000C3
:102E0C0001000000010000000100000001000000B2
:102E1C0001000000010000000100000001000000A2
:102E2C002C0100000024F400100000000100000040
:040000050800174D8B
:00000001FF
